{
	"contracts/StorageFactory.sol": {
		"SimpleFactory": {
			"abi": [
				{
					"inputs": [],
					"name": "createSimpleSorage",
					"outputs": [],
					"stateMutability": "nonpayable",
					"type": "function"
				}
			],
			"devdoc": {
				"kind": "dev",
				"methods": {},
				"version": 1
			},
			"evm": {
				"assembly": "    /* \"contracts/StorageFactory.sol\":1081:1197  contract SimpleFactory { //declaring and naming a contract... */\n  mstore(0x40, 0x80)\n  callvalue\n  dup1\n  iszero\n  tag_1\n  jumpi\n  0x00\n  dup1\n  revert\ntag_1:\n  pop\n  dataSize(sub_0)\n  dup1\n  dataOffset(sub_0)\n  0x00\n  codecopy\n  0x00\n  return\nstop\n\nsub_0: assembly {\n        /* \"contracts/StorageFactory.sol\":1081:1197  contract SimpleFactory { //declaring and naming a contract... */\n      mstore(0x40, 0x80)\n      callvalue\n      dup1\n      iszero\n      tag_1\n      jumpi\n      0x00\n      dup1\n      revert\n    tag_1:\n      pop\n      jumpi(tag_2, lt(calldatasize, 0x04))\n      shr(0xe0, calldataload(0x00))\n      dup1\n      0xab5318e6\n      eq\n      tag_3\n      jumpi\n    tag_2:\n      0x00\n      dup1\n      revert\n        /* \"contracts/StorageFactory.sol\":1145:1192  function createSimpleSorage() public {... */\n    tag_3:\n      stop\n\n    auxdata: 0xa2646970667358221220a4fe0c855d4307b48879e584da41ba22d1d0f691a23a96ee00c28e9f01f874fe64736f6c63430008140033\n}\n",
				"bytecode": {
					"linkReferences": {},
					"object": "6080604052348015600e575f80fd5b50606280601a5f395ff3fe6080604052348015600e575f80fd5b50600436106026575f3560e01c8063ab5318e614602a575b5f80fd5b00fea2646970667358221220a4fe0c855d4307b48879e584da41ba22d1d0f691a23a96ee00c28e9f01f874fe64736f6c63430008140033",
					"opcodes": "PUSH1 0x80 PUSH1 0x40 MSTORE CALLVALUE DUP1 ISZERO PUSH1 0xE JUMPI PUSH0 DUP1 REVERT JUMPDEST POP PUSH1 0x62 DUP1 PUSH1 0x1A PUSH0 CODECOPY PUSH0 RETURN INVALID PUSH1 0x80 PUSH1 0x40 MSTORE CALLVALUE DUP1 ISZERO PUSH1 0xE JUMPI PUSH0 DUP1 REVERT JUMPDEST POP PUSH1 0x4 CALLDATASIZE LT PUSH1 0x26 JUMPI PUSH0 CALLDATALOAD PUSH1 0xE0 SHR DUP1 PUSH4 0xAB5318E6 EQ PUSH1 0x2A JUMPI JUMPDEST PUSH0 DUP1 REVERT JUMPDEST STOP INVALID LOG2 PUSH5 0x6970667358 0x22 SLT KECCAK256 LOG4 INVALID 0xC DUP6 0x5D NUMBER SMOD 0xB4 DUP9 PUSH26 0xE584DA41BA22D1D0F691A23A96EE00C28E9F01F874FE64736F6C PUSH4 0x43000814 STOP CALLER "
				},
				"deployedBytecode": {
					"immutableReferences": {},
					"linkReferences": {},
					"object": "6080604052348015600e575f80fd5b50600436106026575f3560e01c8063ab5318e614602a575b5f80fd5b00fea2646970667358221220a4fe0c855d4307b48879e584da41ba22d1d0f691a23a96ee00c28e9f01f874fe64736f6c63430008140033",
					"opcodes": "PUSH1 0x80 PUSH1 0x40 MSTORE CALLVALUE DUP1 ISZERO PUSH1 0xE JUMPI PUSH0 DUP1 REVERT JUMPDEST POP PUSH1 0x4 CALLDATASIZE LT PUSH1 0x26 JUMPI PUSH0 CALLDATALOAD PUSH1 0xE0 SHR DUP1 PUSH4 0xAB5318E6 EQ PUSH1 0x2A JUMPI JUMPDEST PUSH0 DUP1 REVERT JUMPDEST STOP INVALID LOG2 PUSH5 0x6970667358 0x22 SLT KECCAK256 LOG4 INVALID 0xC DUP6 0x5D NUMBER SMOD 0xB4 DUP9 PUSH26 0xE584DA41BA22D1D0F691A23A96EE00C28E9F01F874FE64736F6C PUSH4 0x43000814 STOP CALLER "
				},
				"gasEstimates": {
					"creation": {
						"codeDepositCost": "19600",
						"executionCost": "73",
						"totalCost": "19673"
					},
					"external": {
						"createSimpleSorage()": "97"
					}
				},
				"methodIdentifiers": {
					"createSimpleSorage()": "ab5318e6"
				}
			},
			"storageLayout": {
				"storage": [],
				"types": null
			},
			"userdoc": {
				"kind": "user",
				"methods": {},
				"version": 1
			}
		}
	}
}