{
	"contracts/StorageFactory.sol": {
		"PeopleRegistry": {
			"abi": [
				{
					"inputs": [
						{
							"internalType": "string",
							"name": "_name",
							"type": "string"
						},
						{
							"internalType": "uint256",
							"name": "_number",
							"type": "uint256"
						}
					],
					"name": "addPerson",
					"outputs": [],
					"stateMutability": "nonpayable",
					"type": "function"
				},
				{
					"inputs": [
						{
							"internalType": "string",
							"name": "_name",
							"type": "string"
						}
					],
					"name": "getNumberByName",
					"outputs": [
						{
							"internalType": "uint256",
							"name": "",
							"type": "uint256"
						}
					],
					"stateMutability": "view",
					"type": "function"
				},
				{
					"inputs": [
						{
							"internalType": "uint256",
							"name": "",
							"type": "uint256"
						}
					],
					"name": "people",
					"outputs": [
						{
							"internalType": "uint256",
							"name": "number",
							"type": "uint256"
						},
						{
							"internalType": "string",
							"name": "name",
							"type": "string"
						}
					],
					"stateMutability": "view",
					"type": "function"
				},
				{
					"inputs": [],
					"name": "retrieve",
					"outputs": [
						{
							"internalType": "uint256",
							"name": "",
							"type": "uint256"
						}
					],
					"stateMutability": "view",
					"type": "function"
				},
				{
					"inputs": [
						{
							"internalType": "uint256",
							"name": "_number",
							"type": "uint256"
						}
					],
					"name": "store",
					"outputs": [],
					"stateMutability": "nonpayable",
					"type": "function"
				},
				{
					"inputs": [],
					"name": "storedNumber",
					"outputs": [
						{
							"internalType": "uint256",
							"name": "",
							"type": "uint256"
						}
					],
					"stateMutability": "view",
					"type": "function"
				}
			],
			"devdoc": {
				"kind": "dev",
				"methods": {},
				"version": 1
			},
			"evm": {
				"assembly": "    /* \"contracts/StorageFactory.sol\":181:1077  contract PeopleRegistry {... */\n  mstore(0x40, 0x80)\n  callvalue\n  dup1\n  iszero\n  tag_1\n  jumpi\n  0x00\n  dup1\n  revert\ntag_1:\n  pop\n  dataSize(sub_0)\n  dup1\n  dataOffset(sub_0)\n  0x00\n  codecopy\n  0x00\n  return\nstop\n\nsub_0: assembly {\n        /* \"contracts/StorageFactory.sol\":181:1077  contract PeopleRegistry {... */\n      mstore(0x40, 0x80)\n      callvalue\n      dup1\n      iszero\n      tag_1\n      jumpi\n      0x00\n      dup1\n      revert\n    tag_1:\n      pop\n      jumpi(tag_2, lt(calldatasize, 0x04))\n      shr(0xe0, calldataload(0x00))\n      dup1\n      0x09ce9ccb\n      eq\n      tag_3\n      jumpi\n      dup1\n      0x2e64cec1\n      eq\n      tag_4\n      jumpi\n      dup1\n      0x6057361d\n      eq\n      tag_5\n      jumpi\n      dup1\n      0x6f760f41\n      eq\n      tag_6\n      jumpi\n      dup1\n      0x9e7a13ad\n      eq\n      tag_7\n      jumpi\n      dup1\n      0xc24f7a90\n      eq\n      tag_8\n      jumpi\n    tag_2:\n      0x00\n      dup1\n      revert\n        /* \"contracts/StorageFactory.sol\":242:270  uint256 public  storedNumber */\n    tag_3:\n      tag_9\n      sload(0x00)\n      dup2\n      jump\n    tag_9:\n      mload(0x40)\n        /* \"#utility.yul\":160:185   */\n      swap1\n      dup2\n      mstore\n        /* \"#utility.yul\":148:150   */\n      0x20\n        /* \"#utility.yul\":133:151   */\n      add\n        /* \"contracts/StorageFactory.sol\":242:270  uint256 public  storedNumber */\n    tag_11:\n      mload(0x40)\n      dup1\n      swap2\n      sub\n      swap1\n      return\n        /* \"contracts/StorageFactory.sol\":610:700  function retrieve() external view returns (uint256) {... */\n    tag_4:\n        /* \"contracts/StorageFactory.sol\":653:660  uint256 */\n      0x00\n        /* \"contracts/StorageFactory.sol\":680:692  storedNumber */\n      sload\n        /* \"contracts/StorageFactory.sol\":610:700  function retrieve() external view returns (uint256) {... */\n      jump(tag_9)\n        /* \"contracts/StorageFactory.sol\":514:596  function store(uint256 _number) external {... */\n    tag_5:\n      tag_16\n      tag_17\n      calldatasize\n      0x04\n      tag_18\n      jump\t// in\n    tag_17:\n        /* \"contracts/StorageFactory.sol\":566:578  storedNumber */\n      0x00\n        /* \"contracts/StorageFactory.sol\":566:588  storedNumber = _number */\n      sstore\n        /* \"contracts/StorageFactory.sol\":514:596  function store(uint256 _number) external {... */\n      jump\n    tag_16:\n      stop\n        /* \"contracts/StorageFactory.sol\":714:919  function addPerson(... */\n    tag_6:\n      tag_16\n      tag_21\n      calldatasize\n      0x04\n      tag_22\n      jump\t// in\n    tag_21:\n      tag_23\n      jump\t// in\n        /* \"contracts/StorageFactory.sol\":389:411  Person[] public people */\n    tag_7:\n      tag_24\n      tag_25\n      calldatasize\n      0x04\n      tag_18\n      jump\t// in\n    tag_25:\n      tag_26\n      jump\t// in\n    tag_24:\n      mload(0x40)\n      tag_11\n      swap3\n      swap2\n      swap1\n      tag_28\n      jump\t// in\n        /* \"contracts/StorageFactory.sol\":933:1074  function getNumberByName(... */\n    tag_8:\n      tag_9\n      tag_30\n      calldatasize\n      0x04\n      tag_31\n      jump\t// in\n    tag_30:\n      tag_32\n      jump\t// in\n        /* \"contracts/StorageFactory.sol\":714:919  function addPerson(... */\n    tag_23:\n        /* \"contracts/StorageFactory.sol\":818:824  people */\n      0x01\n        /* \"contracts/StorageFactory.sol\":830:870  Person({ number: _number, name: _name }) */\n      mload(0x40)\n      dup1\n      0x40\n      add\n      0x40\n      mstore\n      dup1\n        /* \"contracts/StorageFactory.sol\":847:854  _number */\n      dup4\n        /* \"contracts/StorageFactory.sol\":830:870  Person({ number: _number, name: _name }) */\n      dup2\n      mstore\n      0x20\n      add\n        /* \"contracts/StorageFactory.sol\":862:867  _name */\n      dup6\n      dup6\n        /* \"contracts/StorageFactory.sol\":830:870  Person({ number: _number, name: _name }) */\n      dup1\n      dup1\n      0x1f\n      add\n      0x20\n      dup1\n      swap2\n      div\n      mul\n      0x20\n      add\n      mload(0x40)\n      swap1\n      dup2\n      add\n      0x40\n      mstore\n      dup1\n      swap4\n      swap3\n      swap2\n      swap1\n      dup2\n      dup2\n      mstore\n      0x20\n      add\n      dup4\n      dup4\n      dup1\n      dup3\n      dup5\n      calldatacopy\n      0x00\n      swap3\n      add\n      dup3\n      swap1\n      mstore\n      pop\n      swap4\n      swap1\n      swap5\n      mstore\n      pop\n      pop\n        /* \"contracts/StorageFactory.sol\":818:871  people.push(Person({ number: _number, name: _name })) */\n      dup4\n      sload\n      0x01\n      dup2\n      dup2\n      add\n      dup7\n      sstore\n      swap5\n      dup3\n      mstore\n      0x20\n      swap2\n      dup3\n      swap1\n      keccak256\n      dup5\n      mload\n      0x02\n      swap1\n      swap3\n      mul\n      add\n      swap1\n      dup2\n      sstore\n      swap1\n      dup4\n      add\n      mload\n      swap3\n      swap4\n      swap1\n      swap3\n      swap1\n      dup4\n      add\n      swap2\n      pop\n      tag_38\n      swap1\n      dup3\n      tag_39\n      jump\t// in\n    tag_38:\n      pop\n      pop\n      pop\n        /* \"contracts/StorageFactory.sol\":904:911  _number */\n      dup1\n        /* \"contracts/StorageFactory.sol\":882:894  nameToNumber */\n      0x02\n        /* \"contracts/StorageFactory.sol\":895:900  _name */\n      dup5\n      dup5\n        /* \"contracts/StorageFactory.sol\":882:901  nameToNumber[_name] */\n      mload(0x40)\n      tag_40\n      swap3\n      swap2\n      swap1\n      tag_41\n      jump\t// in\n    tag_40:\n      swap1\n      dup2\n      mstore\n      mload(0x40)\n      swap1\n      dup2\n      swap1\n      sub\n      0x20\n      add\n      swap1\n      keccak256\n        /* \"contracts/StorageFactory.sol\":882:911  nameToNumber[_name] = _number */\n      sstore\n      pop\n      pop\n      pop\n        /* \"contracts/StorageFactory.sol\":714:919  function addPerson(... */\n      jump\t// out\n        /* \"contracts/StorageFactory.sol\":389:411  Person[] public people */\n    tag_26:\n      0x01\n      dup2\n      dup2\n      sload\n      dup2\n      lt\n      tag_42\n      jumpi\n      0x00\n      dup1\n      revert\n    tag_42:\n      0x00\n      swap2\n      dup3\n      mstore\n      0x20\n      swap1\n      swap2\n      keccak256\n      0x02\n      swap1\n      swap2\n      mul\n      add\n      dup1\n      sload\n      0x01\n      dup3\n      add\n      dup1\n      sload\n      swap2\n      swap4\n      pop\n      swap1\n      tag_44\n      swap1\n      tag_45\n      jump\t// in\n    tag_44:\n      dup1\n      0x1f\n      add\n      0x20\n      dup1\n      swap2\n      div\n      mul\n      0x20\n      add\n      mload(0x40)\n      swap1\n      dup2\n      add\n      0x40\n      mstore\n      dup1\n      swap3\n      swap2\n      swap1\n      dup2\n      dup2\n      mstore\n      0x20\n      add\n      dup3\n      dup1\n      sload\n      tag_46\n      swap1\n      tag_45\n      jump\t// in\n    tag_46:\n      dup1\n      iszero\n      tag_47\n      jumpi\n      dup1\n      0x1f\n      lt\n      tag_48\n      jumpi\n      0x0100\n      dup1\n      dup4\n      sload\n      div\n      mul\n      dup4\n      mstore\n      swap2\n      0x20\n      add\n      swap2\n      jump(tag_47)\n    tag_48:\n      dup3\n      add\n      swap2\n      swap1\n      0x00\n      mstore\n      keccak256(0x00, 0x20)\n      swap1\n    tag_49:\n      dup2\n      sload\n      dup2\n      mstore\n      swap1\n      0x01\n      add\n      swap1\n      0x20\n      add\n      dup1\n      dup4\n      gt\n      tag_49\n      jumpi\n      dup3\n      swap1\n      sub\n      0x1f\n      and\n      dup3\n      add\n      swap2\n    tag_47:\n      pop\n      pop\n      pop\n      pop\n      pop\n      swap1\n      pop\n      dup3\n      jump\t// out\n        /* \"contracts/StorageFactory.sol\":933:1074  function getNumberByName(... */\n    tag_32:\n        /* \"contracts/StorageFactory.sol\":1020:1027  uint256 */\n      0x00\n        /* \"contracts/StorageFactory.sol\":1047:1059  nameToNumber */\n      0x02\n        /* \"contracts/StorageFactory.sol\":1060:1065  _name */\n      dup4\n      dup4\n        /* \"contracts/StorageFactory.sol\":1047:1066  nameToNumber[_name] */\n      mload(0x40)\n      tag_51\n      swap3\n      swap2\n      swap1\n      tag_41\n      jump\t// in\n    tag_51:\n      swap1\n      dup2\n      mstore\n      0x20\n      add\n      mload(0x40)\n      dup1\n      swap2\n      sub\n      swap1\n      keccak256\n      sload\n        /* \"contracts/StorageFactory.sol\":1040:1066  return nameToNumber[_name] */\n      swap1\n      pop\n        /* \"contracts/StorageFactory.sol\":933:1074  function getNumberByName(... */\n      swap3\n      swap2\n      pop\n      pop\n      jump\t// out\n        /* \"#utility.yul\":196:376   */\n    tag_18:\n        /* \"#utility.yul\":255:261   */\n      0x00\n        /* \"#utility.yul\":308:310   */\n      0x20\n        /* \"#utility.yul\":296:305   */\n      dup3\n        /* \"#utility.yul\":287:294   */\n      dup5\n        /* \"#utility.yul\":283:306   */\n      sub\n        /* \"#utility.yul\":279:311   */\n      slt\n        /* \"#utility.yul\":276:328   */\n      iszero\n      tag_60\n      jumpi\n        /* \"#utility.yul\":324:325   */\n      0x00\n        /* \"#utility.yul\":321:322   */\n      dup1\n        /* \"#utility.yul\":314:326   */\n      revert\n        /* \"#utility.yul\":276:328   */\n    tag_60:\n      pop\n        /* \"#utility.yul\":347:370   */\n      calldataload\n      swap2\n        /* \"#utility.yul\":196:376   */\n      swap1\n      pop\n      jump\t// out\n        /* \"#utility.yul\":381:729   */\n    tag_52:\n        /* \"#utility.yul\":433:441   */\n      0x00\n        /* \"#utility.yul\":443:449   */\n      dup1\n        /* \"#utility.yul\":497:500   */\n      dup4\n        /* \"#utility.yul\":490:494   */\n      0x1f\n        /* \"#utility.yul\":482:488   */\n      dup5\n        /* \"#utility.yul\":478:495   */\n      add\n        /* \"#utility.yul\":474:501   */\n      slt\n        /* \"#utility.yul\":464:519   */\n      tag_62\n      jumpi\n        /* \"#utility.yul\":515:516   */\n      0x00\n        /* \"#utility.yul\":512:513   */\n      dup1\n        /* \"#utility.yul\":505:517   */\n      revert\n        /* \"#utility.yul\":464:519   */\n    tag_62:\n      pop\n        /* \"#utility.yul\":538:558   */\n      dup2\n      calldataload\n        /* \"#utility.yul\":581:599   */\n      0xffffffffffffffff\n        /* \"#utility.yul\":570:600   */\n      dup2\n      gt\n        /* \"#utility.yul\":567:617   */\n      iszero\n      tag_63\n      jumpi\n        /* \"#utility.yul\":613:614   */\n      0x00\n        /* \"#utility.yul\":610:611   */\n      dup1\n        /* \"#utility.yul\":603:615   */\n      revert\n        /* \"#utility.yul\":567:617   */\n    tag_63:\n        /* \"#utility.yul\":650:654   */\n      0x20\n        /* \"#utility.yul\":642:648   */\n      dup4\n        /* \"#utility.yul\":638:655   */\n      add\n        /* \"#utility.yul\":626:655   */\n      swap2\n      pop\n        /* \"#utility.yul\":702:705   */\n      dup4\n        /* \"#utility.yul\":695:699   */\n      0x20\n        /* \"#utility.yul\":686:692   */\n      dup3\n        /* \"#utility.yul\":678:684   */\n      dup6\n        /* \"#utility.yul\":674:693   */\n      add\n        /* \"#utility.yul\":670:700   */\n      add\n        /* \"#utility.yul\":667:706   */\n      gt\n        /* \"#utility.yul\":664:723   */\n      iszero\n      tag_64\n      jumpi\n        /* \"#utility.yul\":719:720   */\n      0x00\n        /* \"#utility.yul\":716:717   */\n      dup1\n        /* \"#utility.yul\":709:721   */\n      revert\n        /* \"#utility.yul\":664:723   */\n    tag_64:\n        /* \"#utility.yul\":381:729   */\n      swap3\n      pop\n      swap3\n      swap1\n      pop\n      jump\t// out\n        /* \"#utility.yul\":734:1213   */\n    tag_22:\n        /* \"#utility.yul\":814:820   */\n      0x00\n        /* \"#utility.yul\":822:828   */\n      dup1\n        /* \"#utility.yul\":830:836   */\n      0x00\n        /* \"#utility.yul\":883:885   */\n      0x40\n        /* \"#utility.yul\":871:880   */\n      dup5\n        /* \"#utility.yul\":862:869   */\n      dup7\n        /* \"#utility.yul\":858:881   */\n      sub\n        /* \"#utility.yul\":854:886   */\n      slt\n        /* \"#utility.yul\":851:903   */\n      iszero\n      tag_66\n      jumpi\n        /* \"#utility.yul\":899:900   */\n      0x00\n        /* \"#utility.yul\":896:897   */\n      dup1\n        /* \"#utility.yul\":889:901   */\n      revert\n        /* \"#utility.yul\":851:903   */\n    tag_66:\n        /* \"#utility.yul\":939:948   */\n      dup4\n        /* \"#utility.yul\":926:949   */\n      calldataload\n        /* \"#utility.yul\":972:990   */\n      0xffffffffffffffff\n        /* \"#utility.yul\":964:970   */\n      dup2\n        /* \"#utility.yul\":961:991   */\n      gt\n        /* \"#utility.yul\":958:1008   */\n      iszero\n      tag_67\n      jumpi\n        /* \"#utility.yul\":1004:1005   */\n      0x00\n        /* \"#utility.yul\":1001:1002   */\n      dup1\n        /* \"#utility.yul\":994:1006   */\n      revert\n        /* \"#utility.yul\":958:1008   */\n    tag_67:\n        /* \"#utility.yul\":1043:1102   */\n      tag_68\n        /* \"#utility.yul\":1094:1101   */\n      dup7\n        /* \"#utility.yul\":1085:1091   */\n      dup3\n        /* \"#utility.yul\":1074:1083   */\n      dup8\n        /* \"#utility.yul\":1070:1092   */\n      add\n        /* \"#utility.yul\":1043:1102   */\n      tag_52\n      jump\t// in\n    tag_68:\n        /* \"#utility.yul\":1121:1129   */\n      swap1\n      swap8\n        /* \"#utility.yul\":1017:1102   */\n      swap1\n      swap7\n      pop\n        /* \"#utility.yul\":1203:1205   */\n      0x20\n        /* \"#utility.yul\":1188:1206   */\n      swap6\n      swap1\n      swap6\n      add\n        /* \"#utility.yul\":1175:1207   */\n      calldataload\n      swap5\n        /* \"#utility.yul\":734:1213   */\n      swap4\n      pop\n      pop\n      pop\n      pop\n      jump\t// out\n        /* \"#utility.yul\":1218:1837   */\n    tag_28:\n        /* \"#utility.yul\":1395:1401   */\n      dup3\n        /* \"#utility.yul\":1384:1393   */\n      dup2\n        /* \"#utility.yul\":1377:1402   */\n      mstore\n        /* \"#utility.yul\":1358:1362   */\n      0x00\n        /* \"#utility.yul\":1421:1423   */\n      0x20\n        /* \"#utility.yul\":1459:1461   */\n      0x40\n        /* \"#utility.yul\":1454:1456   */\n      dup2\n        /* \"#utility.yul\":1443:1452   */\n      dup5\n        /* \"#utility.yul\":1439:1457   */\n      add\n        /* \"#utility.yul\":1432:1462   */\n      mstore\n        /* \"#utility.yul\":1491:1497   */\n      dup4\n        /* \"#utility.yul\":1485:1498   */\n      mload\n        /* \"#utility.yul\":1534:1540   */\n      dup1\n        /* \"#utility.yul\":1529:1531   */\n      0x40\n        /* \"#utility.yul\":1518:1527   */\n      dup6\n        /* \"#utility.yul\":1514:1532   */\n      add\n        /* \"#utility.yul\":1507:1541   */\n      mstore\n        /* \"#utility.yul\":1559:1560   */\n      0x00\n        /* \"#utility.yul\":1569:1709   */\n    tag_70:\n        /* \"#utility.yul\":1583:1589   */\n      dup2\n        /* \"#utility.yul\":1580:1581   */\n      dup2\n        /* \"#utility.yul\":1577:1590   */\n      lt\n        /* \"#utility.yul\":1569:1709   */\n      iszero\n      tag_72\n      jumpi\n        /* \"#utility.yul\":1678:1692   */\n      dup6\n      dup2\n      add\n        /* \"#utility.yul\":1674:1697   */\n      dup4\n      add\n        /* \"#utility.yul\":1668:1698   */\n      mload\n        /* \"#utility.yul\":1644:1661   */\n      dup6\n      dup3\n      add\n        /* \"#utility.yul\":1663:1665   */\n      0x60\n        /* \"#utility.yul\":1640:1666   */\n      add\n        /* \"#utility.yul\":1633:1699   */\n      mstore\n        /* \"#utility.yul\":1598:1608   */\n      dup3\n      add\n        /* \"#utility.yul\":1569:1709   */\n      jump(tag_70)\n    tag_72:\n        /* \"#utility.yul\":1573:1576   */\n      pop\n        /* \"#utility.yul\":1758:1759   */\n      0x00\n        /* \"#utility.yul\":1753:1755   */\n      0x60\n        /* \"#utility.yul\":1744:1750   */\n      dup3\n        /* \"#utility.yul\":1733:1742   */\n      dup7\n        /* \"#utility.yul\":1729:1751   */\n      add\n        /* \"#utility.yul\":1725:1756   */\n      add\n        /* \"#utility.yul\":1718:1760   */\n      mstore\n        /* \"#utility.yul\":1828:1830   */\n      0x60\n        /* \"#utility.yul\":1821:1823   */\n      0x1f\n        /* \"#utility.yul\":1817:1824   */\n      not\n        /* \"#utility.yul\":1812:1814   */\n      0x1f\n        /* \"#utility.yul\":1804:1810   */\n      dup4\n        /* \"#utility.yul\":1800:1815   */\n      add\n        /* \"#utility.yul\":1796:1825   */\n      and\n        /* \"#utility.yul\":1785:1794   */\n      dup6\n        /* \"#utility.yul\":1781:1826   */\n      add\n        /* \"#utility.yul\":1777:1831   */\n      add\n        /* \"#utility.yul\":1769:1831   */\n      swap3\n      pop\n      pop\n      pop\n        /* \"#utility.yul\":1218:1837   */\n      swap4\n      swap3\n      pop\n      pop\n      pop\n      jump\t// out\n        /* \"#utility.yul\":1842:2253   */\n    tag_31:\n        /* \"#utility.yul\":1913:1919   */\n      0x00\n        /* \"#utility.yul\":1921:1927   */\n      dup1\n        /* \"#utility.yul\":1974:1976   */\n      0x20\n        /* \"#utility.yul\":1962:1971   */\n      dup4\n        /* \"#utility.yul\":1953:1960   */\n      dup6\n        /* \"#utility.yul\":1949:1972   */\n      sub\n        /* \"#utility.yul\":1945:1977   */\n      slt\n        /* \"#utility.yul\":1942:1994   */\n      iszero\n      tag_74\n      jumpi\n        /* \"#utility.yul\":1990:1991   */\n      0x00\n        /* \"#utility.yul\":1987:1988   */\n      dup1\n        /* \"#utility.yul\":1980:1992   */\n      revert\n        /* \"#utility.yul\":1942:1994   */\n    tag_74:\n        /* \"#utility.yul\":2030:2039   */\n      dup3\n        /* \"#utility.yul\":2017:2040   */\n      calldataload\n        /* \"#utility.yul\":2063:2081   */\n      0xffffffffffffffff\n        /* \"#utility.yul\":2055:2061   */\n      dup2\n        /* \"#utility.yul\":2052:2082   */\n      gt\n        /* \"#utility.yul\":2049:2099   */\n      iszero\n      tag_75\n      jumpi\n        /* \"#utility.yul\":2095:2096   */\n      0x00\n        /* \"#utility.yul\":2092:2093   */\n      dup1\n        /* \"#utility.yul\":2085:2097   */\n      revert\n        /* \"#utility.yul\":2049:2099   */\n    tag_75:\n        /* \"#utility.yul\":2134:2193   */\n      tag_76\n        /* \"#utility.yul\":2185:2192   */\n      dup6\n        /* \"#utility.yul\":2176:2182   */\n      dup3\n        /* \"#utility.yul\":2165:2174   */\n      dup7\n        /* \"#utility.yul\":2161:2183   */\n      add\n        /* \"#utility.yul\":2134:2193   */\n      tag_52\n      jump\t// in\n    tag_76:\n        /* \"#utility.yul\":2212:2220   */\n      swap1\n      swap7\n        /* \"#utility.yul\":2108:2193   */\n      swap1\n      swap6\n      pop\n        /* \"#utility.yul\":1842:2253   */\n      swap4\n      pop\n      pop\n      pop\n      pop\n      jump\t// out\n        /* \"#utility.yul\":2258:2385   */\n    tag_53:\n        /* \"#utility.yul\":2319:2329   */\n      0x4e487b71\n        /* \"#utility.yul\":2314:2317   */\n      0xe0\n        /* \"#utility.yul\":2310:2330   */\n      shl\n        /* \"#utility.yul\":2307:2308   */\n      0x00\n        /* \"#utility.yul\":2300:2331   */\n      mstore\n        /* \"#utility.yul\":2350:2354   */\n      0x41\n        /* \"#utility.yul\":2347:2348   */\n      0x04\n        /* \"#utility.yul\":2340:2355   */\n      mstore\n        /* \"#utility.yul\":2374:2378   */\n      0x24\n        /* \"#utility.yul\":2371:2372   */\n      0x00\n        /* \"#utility.yul\":2364:2379   */\n      revert\n        /* \"#utility.yul\":2390:2770   */\n    tag_45:\n        /* \"#utility.yul\":2469:2470   */\n      0x01\n        /* \"#utility.yul\":2465:2477   */\n      dup2\n      dup2\n      shr\n      swap1\n        /* \"#utility.yul\":2512:2524   */\n      dup3\n      and\n      dup1\n        /* \"#utility.yul\":2533:2594   */\n      tag_79\n      jumpi\n        /* \"#utility.yul\":2587:2591   */\n      0x7f\n        /* \"#utility.yul\":2579:2585   */\n      dup3\n        /* \"#utility.yul\":2575:2592   */\n      and\n        /* \"#utility.yul\":2565:2592   */\n      swap2\n      pop\n        /* \"#utility.yul\":2533:2594   */\n    tag_79:\n        /* \"#utility.yul\":2640:2642   */\n      0x20\n        /* \"#utility.yul\":2632:2638   */\n      dup3\n        /* \"#utility.yul\":2629:2643   */\n      lt\n        /* \"#utility.yul\":2609:2627   */\n      dup2\n        /* \"#utility.yul\":2606:2644   */\n      sub\n        /* \"#utility.yul\":2603:2764   */\n      tag_80\n      jumpi\n        /* \"#utility.yul\":2686:2696   */\n      0x4e487b71\n        /* \"#utility.yul\":2681:2684   */\n      0xe0\n        /* \"#utility.yul\":2677:2697   */\n      shl\n        /* \"#utility.yul\":2674:2675   */\n      0x00\n        /* \"#utility.yul\":2667:2698   */\n      mstore\n        /* \"#utility.yul\":2721:2725   */\n      0x22\n        /* \"#utility.yul\":2718:2719   */\n      0x04\n        /* \"#utility.yul\":2711:2726   */\n      mstore\n        /* \"#utility.yul\":2749:2753   */\n      0x24\n        /* \"#utility.yul\":2746:2747   */\n      0x00\n        /* \"#utility.yul\":2739:2754   */\n      revert\n        /* \"#utility.yul\":2603:2764   */\n    tag_80:\n      pop\n        /* \"#utility.yul\":2390:2770   */\n      swap2\n      swap1\n      pop\n      jump\t// out\n        /* \"#utility.yul\":2901:3446   */\n    tag_55:\n        /* \"#utility.yul\":3003:3005   */\n      0x1f\n        /* \"#utility.yul\":2998:3001   */\n      dup3\n        /* \"#utility.yul\":2995:3006   */\n      gt\n        /* \"#utility.yul\":2992:3440   */\n      iszero\n      tag_83\n      jumpi\n        /* \"#utility.yul\":3039:3040   */\n      0x00\n        /* \"#utility.yul\":3064:3069   */\n      dup2\n        /* \"#utility.yul\":3060:3062   */\n      dup2\n        /* \"#utility.yul\":3053:3070   */\n      mstore\n        /* \"#utility.yul\":3109:3113   */\n      0x20\n        /* \"#utility.yul\":3105:3107   */\n      dup2\n        /* \"#utility.yul\":3095:3114   */\n      keccak256\n        /* \"#utility.yul\":3179:3181   */\n      0x1f\n        /* \"#utility.yul\":3167:3177   */\n      dup6\n        /* \"#utility.yul\":3163:3182   */\n      add\n        /* \"#utility.yul\":3160:3161   */\n      0x05\n        /* \"#utility.yul\":3156:3183   */\n      shr\n        /* \"#utility.yul\":3150:3154   */\n      dup2\n        /* \"#utility.yul\":3146:3184   */\n      add\n        /* \"#utility.yul\":3215:3219   */\n      0x20\n        /* \"#utility.yul\":3203:3213   */\n      dup7\n        /* \"#utility.yul\":3200:3220   */\n      lt\n        /* \"#utility.yul\":3197:3244   */\n      iszero\n      tag_84\n      jumpi\n      pop\n        /* \"#utility.yul\":3238:3242   */\n      dup1\n        /* \"#utility.yul\":3197:3244   */\n    tag_84:\n        /* \"#utility.yul\":3293:3295   */\n      0x1f\n        /* \"#utility.yul\":3288:3291   */\n      dup6\n        /* \"#utility.yul\":3284:3296   */\n      add\n        /* \"#utility.yul\":3281:3282   */\n      0x05\n        /* \"#utility.yul\":3277:3297   */\n      shr\n        /* \"#utility.yul\":3271:3275   */\n      dup3\n        /* \"#utility.yul\":3267:3298   */\n      add\n        /* \"#utility.yul\":3257:3298   */\n      swap2\n      pop\n        /* \"#utility.yul\":3348:3430   */\n    tag_85:\n        /* \"#utility.yul\":3366:3368   */\n      dup2\n        /* \"#utility.yul\":3359:3364   */\n      dup2\n        /* \"#utility.yul\":3356:3369   */\n      lt\n        /* \"#utility.yul\":3348:3430   */\n      iszero\n      tag_87\n      jumpi\n        /* \"#utility.yul\":3411:3428   */\n      dup3\n      dup2\n      sstore\n        /* \"#utility.yul\":3392:3393   */\n      0x01\n        /* \"#utility.yul\":3381:3394   */\n      add\n        /* \"#utility.yul\":3348:3430   */\n      jump(tag_85)\n    tag_87:\n        /* \"#utility.yul\":3352:3355   */\n      pop\n      pop\n      pop\n        /* \"#utility.yul\":2992:3440   */\n    tag_83:\n        /* \"#utility.yul\":2901:3446   */\n      pop\n      pop\n      pop\n      jump\t// out\n        /* \"#utility.yul\":3622:4974   */\n    tag_39:\n        /* \"#utility.yul\":3748:3751   */\n      dup2\n        /* \"#utility.yul\":3742:3752   */\n      mload\n        /* \"#utility.yul\":3775:3793   */\n      0xffffffffffffffff\n        /* \"#utility.yul\":3767:3773   */\n      dup2\n        /* \"#utility.yul\":3764:3794   */\n      gt\n        /* \"#utility.yul\":3761:3817   */\n      iszero\n      tag_91\n      jumpi\n        /* \"#utility.yul\":3797:3815   */\n      tag_91\n      tag_53\n      jump\t// in\n    tag_91:\n        /* \"#utility.yul\":3826:3923   */\n      tag_92\n        /* \"#utility.yul\":3916:3922   */\n      dup2\n        /* \"#utility.yul\":3876:3914   */\n      tag_93\n        /* \"#utility.yul\":3908:3912   */\n      dup5\n        /* \"#utility.yul\":3902:3913   */\n      sload\n        /* \"#utility.yul\":3876:3914   */\n      tag_45\n      jump\t// in\n    tag_93:\n        /* \"#utility.yul\":3870:3874   */\n      dup5\n        /* \"#utility.yul\":3826:3923   */\n      tag_55\n      jump\t// in\n    tag_92:\n        /* \"#utility.yul\":3978:3982   */\n      0x20\n      dup1\n        /* \"#utility.yul\":4042:4044   */\n      0x1f\n        /* \"#utility.yul\":4031:4045   */\n      dup4\n      gt\n        /* \"#utility.yul\":4059:4060   */\n      0x01\n        /* \"#utility.yul\":4054:4717   */\n      dup2\n      eq\n      tag_95\n      jumpi\n        /* \"#utility.yul\":4761:4762   */\n      0x00\n        /* \"#utility.yul\":4778:4784   */\n      dup5\n        /* \"#utility.yul\":4775:4864   */\n      iszero\n      tag_96\n      jumpi\n      pop\n        /* \"#utility.yul\":4830:4849   */\n      dup6\n      dup4\n      add\n        /* \"#utility.yul\":4824:4850   */\n      mload\n        /* \"#utility.yul\":4775:4864   */\n    tag_96:\n      not(0x00)\n        /* \"#utility.yul\":3579:3580   */\n      0x03\n        /* \"#utility.yul\":3575:3586   */\n      dup7\n      swap1\n      shl\n        /* \"#utility.yul\":3571:3595   */\n      shr\n        /* \"#utility.yul\":3567:3596   */\n      not\n        /* \"#utility.yul\":3557:3597   */\n      and\n        /* \"#utility.yul\":3603:3604   */\n      0x01\n        /* \"#utility.yul\":3599:3610   */\n      dup6\n      swap1\n      shl\n        /* \"#utility.yul\":3554:3611   */\n      or\n        /* \"#utility.yul\":4877:4958   */\n      dup6\n      sstore\n        /* \"#utility.yul\":4024:4968   */\n      jump(tag_87)\n        /* \"#utility.yul\":4054:4717   */\n    tag_95:\n        /* \"#utility.yul\":2848:2849   */\n      0x00\n        /* \"#utility.yul\":2841:2855   */\n      dup6\n      dup2\n      mstore\n        /* \"#utility.yul\":2885:2889   */\n      0x20\n        /* \"#utility.yul\":2872:2890   */\n      dup2\n      keccak256\n      not(0x1f)\n        /* \"#utility.yul\":4090:4110   */\n      dup7\n      and\n      swap2\n        /* \"#utility.yul\":4208:4444   */\n    tag_99:\n        /* \"#utility.yul\":4222:4229   */\n      dup3\n        /* \"#utility.yul\":4219:4220   */\n      dup2\n        /* \"#utility.yul\":4216:4230   */\n      lt\n        /* \"#utility.yul\":4208:4444   */\n      iszero\n      tag_101\n      jumpi\n        /* \"#utility.yul\":4311:4330   */\n      dup9\n      dup7\n      add\n        /* \"#utility.yul\":4305:4331   */\n      mload\n        /* \"#utility.yul\":4290:4332   */\n      dup3\n      sstore\n        /* \"#utility.yul\":4403:4430   */\n      swap5\n      dup5\n      add\n      swap5\n        /* \"#utility.yul\":4371:4372   */\n      0x01\n        /* \"#utility.yul\":4359:4373   */\n      swap1\n      swap2\n      add\n      swap1\n        /* \"#utility.yul\":4238:4257   */\n      dup5\n      add\n        /* \"#utility.yul\":4208:4444   */\n      jump(tag_99)\n    tag_101:\n        /* \"#utility.yul\":4212:4215   */\n      pop\n        /* \"#utility.yul\":4472:4478   */\n      dup6\n        /* \"#utility.yul\":4463:4470   */\n      dup3\n        /* \"#utility.yul\":4460:4479   */\n      lt\n        /* \"#utility.yul\":4457:4658   */\n      iszero\n      tag_102\n      jumpi\n        /* \"#utility.yul\":4533:4552   */\n      dup8\n      dup6\n      add\n        /* \"#utility.yul\":4527:4553   */\n      mload\n      not(0x00)\n        /* \"#utility.yul\":4616:4617   */\n      0x03\n        /* \"#utility.yul\":4612:4626   */\n      dup9\n      swap1\n      shl\n        /* \"#utility.yul\":4628:4631   */\n      0xf8\n        /* \"#utility.yul\":4608:4632   */\n      and\n        /* \"#utility.yul\":4604:4641   */\n      shr\n        /* \"#utility.yul\":4600:4642   */\n      not\n        /* \"#utility.yul\":4585:4643   */\n      and\n        /* \"#utility.yul\":4570:4644   */\n      dup2\n      sstore\n        /* \"#utility.yul\":4457:4658   */\n    tag_102:\n      pop\n      pop\n      pop\n      pop\n      pop\n        /* \"#utility.yul\":4704:4705   */\n      0x01\n        /* \"#utility.yul\":4688:4702   */\n      swap1\n      dup2\n      shl\n        /* \"#utility.yul\":4684:4706   */\n      add\n        /* \"#utility.yul\":4671:4707   */\n      swap1\n      sstore\n      pop\n        /* \"#utility.yul\":3622:4974   */\n      jump\t// out\n        /* \"#utility.yul\":4979:5252   */\n    tag_41:\n        /* \"#utility.yul\":5164:5170   */\n      dup2\n        /* \"#utility.yul\":5156:5162   */\n      dup4\n        /* \"#utility.yul\":5151:5154   */\n      dup3\n        /* \"#utility.yul\":5138:5171   */\n      calldatacopy\n        /* \"#utility.yul\":5120:5123   */\n      0x00\n        /* \"#utility.yul\":5190:5206   */\n      swap2\n      add\n        /* \"#utility.yul\":5215:5228   */\n      swap1\n      dup2\n      mstore\n        /* \"#utility.yul\":5190:5206   */\n      swap2\n        /* \"#utility.yul\":4979:5252   */\n      swap1\n      pop\n      jump\t// out\n\n    auxdata: 0xa2646970667358221220f3916b602f4d5e79f65b7bc06cab9c7c72a0c61cfe4000ba190249e0d929e8a864736f6c63430008140033\n}\n",
				"bytecode": {
					"linkReferences": {},
					"object": "608060405234801561000f575f80fd5b506105398061001d5f395ff3fe608060405234801561000f575f80fd5b5060043610610060575f3560e01c806309ce9ccb146100645780632e64cec11461007f5780636057361d146100865780636f760f411461009a5780639e7a13ad146100ad578063c24f7a90146100ce575b5f80fd5b61006c5f5481565b6040519081526020015b60405180910390f35b5f5461006c565b610098610094366004610268565b5f55565b005b6100986100a83660046102c4565b6100e1565b6100c06100bb366004610268565b61018a565b60405161007692919061030c565b61006c6100dc36600461035f565b61023e565b6001604051806040016040528083815260200185858080601f0160208091040260200160405190810160405280939291908181526020018383808284375f92018290525093909452505083546001818101865594825260209182902084516002909202019081559083015192939092908301915061015f9082610438565b50505080600284846040516101759291906104f4565b90815260405190819003602001902055505050565b60018181548110610199575f80fd5b5f91825260209091206002909102018054600182018054919350906101bd906103b2565b80601f01602080910402602001604051908101604052809291908181526020018280546101e9906103b2565b80156102345780601f1061020b57610100808354040283529160200191610234565b820191905f5260205f20905b81548152906001019060200180831161021757829003601f168201915b5050505050905082565b5f600283836040516102519291906104f4565b908152602001604051809103902054905092915050565b5f60208284031215610278575f80fd5b5035919050565b5f8083601f84011261028f575f80fd5b50813567ffffffffffffffff8111156102a6575f80fd5b6020830191508360208285010111156102bd575f80fd5b9250929050565b5f805f604084860312156102d6575f80fd5b833567ffffffffffffffff8111156102ec575f80fd5b6102f88682870161027f565b909790965060209590950135949350505050565b8281525f602060408184015283518060408501525f5b8181101561033e57858101830151858201606001528201610322565b505f606082860101526060601f19601f830116850101925050509392505050565b5f8060208385031215610370575f80fd5b823567ffffffffffffffff811115610386575f80fd5b6103928582860161027f565b90969095509350505050565b634e487b7160e01b5f52604160045260245ffd5b600181811c908216806103c657607f821691505b6020821081036103e457634e487b7160e01b5f52602260045260245ffd5b50919050565b601f821115610433575f81815260208120601f850160051c810160208610156104105750805b601f850160051c820191505b8181101561042f5782815560010161041c565b5050505b505050565b815167ffffffffffffffff8111156104525761045261039e565b6104668161046084546103b2565b846103ea565b602080601f831160018114610499575f84156104825750858301515b5f19600386901b1c1916600185901b17855561042f565b5f85815260208120601f198616915b828110156104c7578886015182559484019460019091019084016104a8565b50858210156104e457878501515f19600388901b60f8161c191681555b5050505050600190811b01905550565b818382375f910190815291905056fea2646970667358221220f3916b602f4d5e79f65b7bc06cab9c7c72a0c61cfe4000ba190249e0d929e8a864736f6c63430008140033",
					"opcodes": "PUSH1 0x80 PUSH1 0x40 MSTORE CALLVALUE DUP1 ISZERO PUSH2 0xF JUMPI PUSH0 DUP1 REVERT JUMPDEST POP PUSH2 0x539 DUP1 PUSH2 0x1D PUSH0 CODECOPY PUSH0 RETURN INVALID PUSH1 0x80 PUSH1 0x40 MSTORE CALLVALUE DUP1 ISZERO PUSH2 0xF JUMPI PUSH0 DUP1 REVERT JUMPDEST POP PUSH1 0x4 CALLDATASIZE LT PUSH2 0x60 JUMPI PUSH0 CALLDATALOAD PUSH1 0xE0 SHR DUP1 PUSH4 0x9CE9CCB EQ PUSH2 0x64 JUMPI DUP1 PUSH4 0x2E64CEC1 EQ PUSH2 0x7F JUMPI DUP1 PUSH4 0x6057361D EQ PUSH2 0x86 JUMPI DUP1 PUSH4 0x6F760F41 EQ PUSH2 0x9A JUMPI DUP1 PUSH4 0x9E7A13AD EQ PUSH2 0xAD JUMPI DUP1 PUSH4 0xC24F7A90 EQ PUSH2 0xCE JUMPI JUMPDEST PUSH0 DUP1 REVERT JUMPDEST PUSH2 0x6C PUSH0 SLOAD DUP2 JUMP JUMPDEST PUSH1 0x40 MLOAD SWAP1 DUP2 MSTORE PUSH1 0x20 ADD JUMPDEST PUSH1 0x40 MLOAD DUP1 SWAP2 SUB SWAP1 RETURN JUMPDEST PUSH0 SLOAD PUSH2 0x6C JUMP JUMPDEST PUSH2 0x98 PUSH2 0x94 CALLDATASIZE PUSH1 0x4 PUSH2 0x268 JUMP JUMPDEST PUSH0 SSTORE JUMP JUMPDEST STOP JUMPDEST PUSH2 0x98 PUSH2 0xA8 CALLDATASIZE PUSH1 0x4 PUSH2 0x2C4 JUMP JUMPDEST PUSH2 0xE1 JUMP JUMPDEST PUSH2 0xC0 PUSH2 0xBB CALLDATASIZE PUSH1 0x4 PUSH2 0x268 JUMP JUMPDEST PUSH2 0x18A JUMP JUMPDEST PUSH1 0x40 MLOAD PUSH2 0x76 SWAP3 SWAP2 SWAP1 PUSH2 0x30C JUMP JUMPDEST PUSH2 0x6C PUSH2 0xDC CALLDATASIZE PUSH1 0x4 PUSH2 0x35F JUMP JUMPDEST PUSH2 0x23E JUMP JUMPDEST PUSH1 0x1 PUSH1 0x40 MLOAD DUP1 PUSH1 0x40 ADD PUSH1 0x40 MSTORE DUP1 DUP4 DUP2 MSTORE PUSH1 0x20 ADD DUP6 DUP6 DUP1 DUP1 PUSH1 0x1F ADD PUSH1 0x20 DUP1 SWAP2 DIV MUL PUSH1 0x20 ADD PUSH1 0x40 MLOAD SWAP1 DUP2 ADD PUSH1 0x40 MSTORE DUP1 SWAP4 SWAP3 SWAP2 SWAP1 DUP2 DUP2 MSTORE PUSH1 0x20 ADD DUP4 DUP4 DUP1 DUP3 DUP5 CALLDATACOPY PUSH0 SWAP3 ADD DUP3 SWAP1 MSTORE POP SWAP4 SWAP1 SWAP5 MSTORE POP POP DUP4 SLOAD PUSH1 0x1 DUP2 DUP2 ADD DUP7 SSTORE SWAP5 DUP3 MSTORE PUSH1 0x20 SWAP2 DUP3 SWAP1 KECCAK256 DUP5 MLOAD PUSH1 0x2 SWAP1 SWAP3 MUL ADD SWAP1 DUP2 SSTORE SWAP1 DUP4 ADD MLOAD SWAP3 SWAP4 SWAP1 SWAP3 SWAP1 DUP4 ADD SWAP2 POP PUSH2 0x15F SWAP1 DUP3 PUSH2 0x438 JUMP JUMPDEST POP POP POP DUP1 PUSH1 0x2 DUP5 DUP5 PUSH1 0x40 MLOAD PUSH2 0x175 SWAP3 SWAP2 SWAP1 PUSH2 0x4F4 JUMP JUMPDEST SWAP1 DUP2 MSTORE PUSH1 0x40 MLOAD SWAP1 DUP2 SWAP1 SUB PUSH1 0x20 ADD SWAP1 KECCAK256 SSTORE POP POP POP JUMP JUMPDEST PUSH1 0x1 DUP2 DUP2 SLOAD DUP2 LT PUSH2 0x199 JUMPI PUSH0 DUP1 REVERT JUMPDEST PUSH0 SWAP2 DUP3 MSTORE PUSH1 0x20 SWAP1 SWAP2 KECCAK256 PUSH1 0x2 SWAP1 SWAP2 MUL ADD DUP1 SLOAD PUSH1 0x1 DUP3 ADD DUP1 SLOAD SWAP2 SWAP4 POP SWAP1 PUSH2 0x1BD SWAP1 PUSH2 0x3B2 JUMP JUMPDEST DUP1 PUSH1 0x1F ADD PUSH1 0x20 DUP1 SWAP2 DIV MUL PUSH1 0x20 ADD PUSH1 0x40 MLOAD SWAP1 DUP2 ADD PUSH1 0x40 MSTORE DUP1 SWAP3 SWAP2 SWAP1 DUP2 DUP2 MSTORE PUSH1 0x20 ADD DUP3 DUP1 SLOAD PUSH2 0x1E9 SWAP1 PUSH2 0x3B2 JUMP JUMPDEST DUP1 ISZERO PUSH2 0x234 JUMPI DUP1 PUSH1 0x1F LT PUSH2 0x20B JUMPI PUSH2 0x100 DUP1 DUP4 SLOAD DIV MUL DUP4 MSTORE SWAP2 PUSH1 0x20 ADD SWAP2 PUSH2 0x234 JUMP JUMPDEST DUP3 ADD SWAP2 SWAP1 PUSH0 MSTORE PUSH1 0x20 PUSH0 KECCAK256 SWAP1 JUMPDEST DUP2 SLOAD DUP2 MSTORE SWAP1 PUSH1 0x1 ADD SWAP1 PUSH1 0x20 ADD DUP1 DUP4 GT PUSH2 0x217 JUMPI DUP3 SWAP1 SUB PUSH1 0x1F AND DUP3 ADD SWAP2 JUMPDEST POP POP POP POP POP SWAP1 POP DUP3 JUMP JUMPDEST PUSH0 PUSH1 0x2 DUP4 DUP4 PUSH1 0x40 MLOAD PUSH2 0x251 SWAP3 SWAP2 SWAP1 PUSH2 0x4F4 JUMP JUMPDEST SWAP1 DUP2 MSTORE PUSH1 0x20 ADD PUSH1 0x40 MLOAD DUP1 SWAP2 SUB SWAP1 KECCAK256 SLOAD SWAP1 POP SWAP3 SWAP2 POP POP JUMP JUMPDEST PUSH0 PUSH1 0x20 DUP3 DUP5 SUB SLT ISZERO PUSH2 0x278 JUMPI PUSH0 DUP1 REVERT JUMPDEST POP CALLDATALOAD SWAP2 SWAP1 POP JUMP JUMPDEST PUSH0 DUP1 DUP4 PUSH1 0x1F DUP5 ADD SLT PUSH2 0x28F JUMPI PUSH0 DUP1 REVERT JUMPDEST POP DUP2 CALLDATALOAD PUSH8 0xFFFFFFFFFFFFFFFF DUP2 GT ISZERO PUSH2 0x2A6 JUMPI PUSH0 DUP1 REVERT JUMPDEST PUSH1 0x20 DUP4 ADD SWAP2 POP DUP4 PUSH1 0x20 DUP3 DUP6 ADD ADD GT ISZERO PUSH2 0x2BD JUMPI PUSH0 DUP1 REVERT JUMPDEST SWAP3 POP SWAP3 SWAP1 POP JUMP JUMPDEST PUSH0 DUP1 PUSH0 PUSH1 0x40 DUP5 DUP7 SUB SLT ISZERO PUSH2 0x2D6 JUMPI PUSH0 DUP1 REVERT JUMPDEST DUP4 CALLDATALOAD PUSH8 0xFFFFFFFFFFFFFFFF DUP2 GT ISZERO PUSH2 0x2EC JUMPI PUSH0 DUP1 REVERT JUMPDEST PUSH2 0x2F8 DUP7 DUP3 DUP8 ADD PUSH2 0x27F JUMP JUMPDEST SWAP1 SWAP8 SWAP1 SWAP7 POP PUSH1 0x20 SWAP6 SWAP1 SWAP6 ADD CALLDATALOAD SWAP5 SWAP4 POP POP POP POP JUMP JUMPDEST DUP3 DUP2 MSTORE PUSH0 PUSH1 0x20 PUSH1 0x40 DUP2 DUP5 ADD MSTORE DUP4 MLOAD DUP1 PUSH1 0x40 DUP6 ADD MSTORE PUSH0 JUMPDEST DUP2 DUP2 LT ISZERO PUSH2 0x33E JUMPI DUP6 DUP2 ADD DUP4 ADD MLOAD DUP6 DUP3 ADD PUSH1 0x60 ADD MSTORE DUP3 ADD PUSH2 0x322 JUMP JUMPDEST POP PUSH0 PUSH1 0x60 DUP3 DUP7 ADD ADD MSTORE PUSH1 0x60 PUSH1 0x1F NOT PUSH1 0x1F DUP4 ADD AND DUP6 ADD ADD SWAP3 POP POP POP SWAP4 SWAP3 POP POP POP JUMP JUMPDEST PUSH0 DUP1 PUSH1 0x20 DUP4 DUP6 SUB SLT ISZERO PUSH2 0x370 JUMPI PUSH0 DUP1 REVERT JUMPDEST DUP3 CALLDATALOAD PUSH8 0xFFFFFFFFFFFFFFFF DUP2 GT ISZERO PUSH2 0x386 JUMPI PUSH0 DUP1 REVERT JUMPDEST PUSH2 0x392 DUP6 DUP3 DUP7 ADD PUSH2 0x27F JUMP JUMPDEST SWAP1 SWAP7 SWAP1 SWAP6 POP SWAP4 POP POP POP POP JUMP JUMPDEST PUSH4 0x4E487B71 PUSH1 0xE0 SHL PUSH0 MSTORE PUSH1 0x41 PUSH1 0x4 MSTORE PUSH1 0x24 PUSH0 REVERT JUMPDEST PUSH1 0x1 DUP2 DUP2 SHR SWAP1 DUP3 AND DUP1 PUSH2 0x3C6 JUMPI PUSH1 0x7F DUP3 AND SWAP2 POP JUMPDEST PUSH1 0x20 DUP3 LT DUP2 SUB PUSH2 0x3E4 JUMPI PUSH4 0x4E487B71 PUSH1 0xE0 SHL PUSH0 MSTORE PUSH1 0x22 PUSH1 0x4 MSTORE PUSH1 0x24 PUSH0 REVERT JUMPDEST POP SWAP2 SWAP1 POP JUMP JUMPDEST PUSH1 0x1F DUP3 GT ISZERO PUSH2 0x433 JUMPI PUSH0 DUP2 DUP2 MSTORE PUSH1 0x20 DUP2 KECCAK256 PUSH1 0x1F DUP6 ADD PUSH1 0x5 SHR DUP2 ADD PUSH1 0x20 DUP7 LT ISZERO PUSH2 0x410 JUMPI POP DUP1 JUMPDEST PUSH1 0x1F DUP6 ADD PUSH1 0x5 SHR DUP3 ADD SWAP2 POP JUMPDEST DUP2 DUP2 LT ISZERO PUSH2 0x42F JUMPI DUP3 DUP2 SSTORE PUSH1 0x1 ADD PUSH2 0x41C JUMP JUMPDEST POP POP POP JUMPDEST POP POP POP JUMP JUMPDEST DUP2 MLOAD PUSH8 0xFFFFFFFFFFFFFFFF DUP2 GT ISZERO PUSH2 0x452 JUMPI PUSH2 0x452 PUSH2 0x39E JUMP JUMPDEST PUSH2 0x466 DUP2 PUSH2 0x460 DUP5 SLOAD PUSH2 0x3B2 JUMP JUMPDEST DUP5 PUSH2 0x3EA JUMP JUMPDEST PUSH1 0x20 DUP1 PUSH1 0x1F DUP4 GT PUSH1 0x1 DUP2 EQ PUSH2 0x499 JUMPI PUSH0 DUP5 ISZERO PUSH2 0x482 JUMPI POP DUP6 DUP4 ADD MLOAD JUMPDEST PUSH0 NOT PUSH1 0x3 DUP7 SWAP1 SHL SHR NOT AND PUSH1 0x1 DUP6 SWAP1 SHL OR DUP6 SSTORE PUSH2 0x42F JUMP JUMPDEST PUSH0 DUP6 DUP2 MSTORE PUSH1 0x20 DUP2 KECCAK256 PUSH1 0x1F NOT DUP7 AND SWAP2 JUMPDEST DUP3 DUP2 LT ISZERO PUSH2 0x4C7 JUMPI DUP9 DUP7 ADD MLOAD DUP3 SSTORE SWAP5 DUP5 ADD SWAP5 PUSH1 0x1 SWAP1 SWAP2 ADD SWAP1 DUP5 ADD PUSH2 0x4A8 JUMP JUMPDEST POP DUP6 DUP3 LT ISZERO PUSH2 0x4E4 JUMPI DUP8 DUP6 ADD MLOAD PUSH0 NOT PUSH1 0x3 DUP9 SWAP1 SHL PUSH1 0xF8 AND SHR NOT AND DUP2 SSTORE JUMPDEST POP POP POP POP POP PUSH1 0x1 SWAP1 DUP2 SHL ADD SWAP1 SSTORE POP JUMP JUMPDEST DUP2 DUP4 DUP3 CALLDATACOPY PUSH0 SWAP2 ADD SWAP1 DUP2 MSTORE SWAP2 SWAP1 POP JUMP INVALID LOG2 PUSH5 0x6970667358 0x22 SLT KECCAK256 RETURN SWAP2 PUSH12 0x602F4D5E79F65B7BC06CAB9C PUSH29 0x72A0C61CFE4000BA190249E0D929E8A864736F6C634300081400330000 "
				},
				"gasEstimates": {
					"creation": {
						"codeDepositCost": "267400",
						"executionCost": "304",
						"totalCost": "267704"
					},
					"external": {
						"addPerson(string,uint256)": "infinite",
						"getNumberByName(string)": "infinite",
						"people(uint256)": "infinite",
						"retrieve()": "2279",
						"store(uint256)": "22331",
						"storedNumber()": "2260"
					}
				},
				"methodIdentifiers": {
					"addPerson(string,uint256)": "6f760f41",
					"getNumberByName(string)": "c24f7a90",
					"people(uint256)": "9e7a13ad",
					"retrieve()": "2e64cec1",
					"store(uint256)": "6057361d",
					"storedNumber()": "09ce9ccb"
				}
			},
			"storageLayout": {
				"storage": [
					{
						"astId": 7,
						"contract": "contracts/StorageFactory.sol:PeopleRegistry",
						"label": "storedNumber",
						"offset": 0,
						"slot": "0",
						"type": "t_uint256"
					},
					{
						"astId": 16,
						"contract": "contracts/StorageFactory.sol:PeopleRegistry",
						"label": "people",
						"offset": 0,
						"slot": "1",
						"type": "t_array(t_struct(Person)12_storage)dyn_storage"
					},
					{
						"astId": 20,
						"contract": "contracts/StorageFactory.sol:PeopleRegistry",
						"label": "nameToNumber",
						"offset": 0,
						"slot": "2",
						"type": "t_mapping(t_string_memory_ptr,t_uint256)"
					}
				],
				"types": {
					"t_array(t_struct(Person)12_storage)dyn_storage": {
						"base": "t_struct(Person)12_storage",
						"encoding": "dynamic_array",
						"label": "struct PeopleRegistry.Person[]",
						"numberOfBytes": "32"
					},
					"t_mapping(t_string_memory_ptr,t_uint256)": {
						"encoding": "mapping",
						"key": "t_string_memory_ptr",
						"label": "mapping(string => uint256)",
						"numberOfBytes": "32",
						"value": "t_uint256"
					},
					"t_string_memory_ptr": {
						"encoding": "bytes",
						"label": "string",
						"numberOfBytes": "32"
					},
					"t_string_storage": {
						"encoding": "bytes",
						"label": "string",
						"numberOfBytes": "32"
					},
					"t_struct(Person)12_storage": {
						"encoding": "inplace",
						"label": "struct PeopleRegistry.Person",
						"members": [
							{
								"astId": 9,
								"contract": "contracts/StorageFactory.sol:PeopleRegistry",
								"label": "number",
								"offset": 0,
								"slot": "0",
								"type": "t_uint256"
							},
							{
								"astId": 11,
								"contract": "contracts/StorageFactory.sol:PeopleRegistry",
								"label": "name",
								"offset": 0,
								"slot": "1",
								"type": "t_string_storage"
							}
						],
						"numberOfBytes": "64"
					},
					"t_uint256": {
						"encoding": "inplace",
						"label": "uint256",
						"numberOfBytes": "32"
					}
				}
			},
			"userdoc": {
				"kind": "user",
				"methods": {},
				"version": 1
			}
		}
	}
}