{
	"contracts/StorageFactory.sol": {
		"SimpleStorage": {
			"abi": [
				{
					"inputs": [],
					"name": "DEFAULT_PRACTICE_VALUE",
					"outputs": [
						{
							"internalType": "uint256",
							"name": "",
							"type": "uint256"
						}
					],
					"stateMutability": "view",
					"type": "function"
				}
			],
			"devdoc": {
				"kind": "dev",
				"methods": {},
				"version": 1
			},
			"evm": {
				"assembly": "    /* \"contracts/StorageFactory.sol\":93:177  contract SimpleStorage {... */\n  mstore(0x40, 0x80)\n  callvalue\n  dup1\n  iszero\n  tag_1\n  jumpi\n  0x00\n  dup1\n  revert\ntag_1:\n  pop\n  dataSize(sub_0)\n  dup1\n  dataOffset(sub_0)\n  0x00\n  codecopy\n  0x00\n  return\nstop\n\nsub_0: assembly {\n        /* \"contracts/StorageFactory.sol\":93:177  contract SimpleStorage {... */\n      mstore(0x40, 0x80)\n      callvalue\n      dup1\n      iszero\n      tag_1\n      jumpi\n      0x00\n      dup1\n      revert\n    tag_1:\n      pop\n      jumpi(tag_2, lt(calldatasize, 0x04))\n      shr(0xe0, calldataload(0x00))\n      dup1\n      0x6289e821\n      eq\n      tag_3\n      jumpi\n    tag_2:\n      0x00\n      dup1\n      revert\n        /* \"contracts/StorageFactory.sol\":123:173  uint256 public constant DEFAULT_PRACTICE_VALUE = 5 */\n    tag_3:\n      tag_4\n        /* \"contracts/StorageFactory.sol\":172:173  5 */\n      0x05\n        /* \"contracts/StorageFactory.sol\":123:173  uint256 public constant DEFAULT_PRACTICE_VALUE = 5 */\n      dup2\n      jump\n    tag_4:\n      mload(0x40)\n        /* \"#utility.yul\":160:185   */\n      swap1\n      dup2\n      mstore\n        /* \"#utility.yul\":148:150   */\n      0x20\n        /* \"#utility.yul\":133:151   */\n      add\n        /* \"contracts/StorageFactory.sol\":123:173  uint256 public constant DEFAULT_PRACTICE_VALUE = 5 */\n      mload(0x40)\n      dup1\n      swap2\n      sub\n      swap1\n      return\n\n    auxdata: 0xa2646970667358221220faca803aaad3bc986b86e35027e42f820624c1e0e2b05083734ee47e6bcd026164736f6c63430008140033\n}\n",
				"bytecode": {
					"linkReferences": {},
					"object": "6080604052348015600e575f80fd5b50607980601a5f395ff3fe6080604052348015600e575f80fd5b50600436106026575f3560e01c80636289e82114602a575b5f80fd5b6031600581565b60405190815260200160405180910390f3fea2646970667358221220faca803aaad3bc986b86e35027e42f820624c1e0e2b05083734ee47e6bcd026164736f6c63430008140033",
					"opcodes": "PUSH1 0x80 PUSH1 0x40 MSTORE CALLVALUE DUP1 ISZERO PUSH1 0xE JUMPI PUSH0 DUP1 REVERT JUMPDEST POP PUSH1 0x79 DUP1 PUSH1 0x1A PUSH0 CODECOPY PUSH0 RETURN INVALID PUSH1 0x80 PUSH1 0x40 MSTORE CALLVALUE DUP1 ISZERO PUSH1 0xE JUMPI PUSH0 DUP1 REVERT JUMPDEST POP PUSH1 0x4 CALLDATASIZE LT PUSH1 0x26 JUMPI PUSH0 CALLDATALOAD PUSH1 0xE0 SHR DUP1 PUSH4 0x6289E821 EQ PUSH1 0x2A JUMPI JUMPDEST PUSH0 DUP1 REVERT JUMPDEST PUSH1 0x31 PUSH1 0x5 DUP2 JUMP JUMPDEST PUSH1 0x40 MLOAD SWAP1 DUP2 MSTORE PUSH1 0x20 ADD PUSH1 0x40 MLOAD DUP1 SWAP2 SUB SWAP1 RETURN INVALID LOG2 PUSH5 0x6970667358 0x22 SLT KECCAK256 STATICCALL 0xCA DUP1 GASPRICE 0xAA 0xD3 0xBC SWAP9 PUSH12 0x86E35027E42F820624C1E0E2 0xB0 POP DUP4 PUSH20 0x4EE47E6BCD026164736F6C634300081400330000 "
				},
				"gasEstimates": {
					"creation": {
						"codeDepositCost": "24200",
						"executionCost": "73",
						"totalCost": "24273"
					},
					"external": {
						"DEFAULT_PRACTICE_VALUE()": "160"
					}
				},
				"methodIdentifiers": {
					"DEFAULT_PRACTICE_VALUE()": "6289e821"
				}
			},
			"storageLayout": {
				"storage": [],
				"types": null
			},
			"userdoc": {
				"kind": "user",
				"methods": {},
				"version": 1
			}
		}
	}
}