{
	"contracts/StorageFactory.sol": {
		"SimpleFactory": {
			"abi": [
				{
					"inputs": [],
					"name": "createSimpleSorage",
					"outputs": [],
					"stateMutability": "nonpayable",
					"type": "function"
				},
				{
					"inputs": [
						{
							"internalType": "uint256",
							"name": "",
							"type": "uint256"
						}
					],
					"name": "listofSimpleStorageContracts",
					"outputs": [
						{
							"internalType": "contract SimpleStorage",
							"name": "",
							"type": "address"
						}
					],
					"stateMutability": "view",
					"type": "function"
				},
				{
					"inputs": [
						{
							"internalType": "uint256",
							"name": "_simpleStorageIndex",
							"type": "uint256"
						}
					],
					"name": "sfGet",
					"outputs": [
						{
							"internalType": "uint256",
							"name": "",
							"type": "uint256"
						}
					],
					"stateMutability": "view",
					"type": "function"
				},
				{
					"inputs": [
						{
							"internalType": "uint256",
							"name": "_simpleStorageIndex",
							"type": "uint256"
						},
						{
							"internalType": "uint256",
							"name": "_value",
							"type": "uint256"
						}
					],
					"name": "sfStore",
					"outputs": [],
					"stateMutability": "nonpayable",
					"type": "function"
				}
			],
			"devdoc": {
				"kind": "dev",
				"methods": {},
				"version": 1
			},
			"evm": {
				"assembly": "    /* \"contracts/StorageFactory.sol\":205:1072  contract SimpleFactory { //declaring and naming a contract ... */\n  mstore(0x40, 0x80)\n  callvalue\n  dup1\n  iszero\n  tag_1\n  jumpi\n  revert(0x00, 0x00)\ntag_1:\n  pop\n  dataSize(sub_0)\n  dup1\n  dataOffset(sub_0)\n  0x00\n  codecopy\n  0x00\n  return\nstop\n\nsub_0: assembly {\n        /* \"contracts/StorageFactory.sol\":205:1072  contract SimpleFactory { //declaring and naming a contract ... */\n      mstore(0x40, 0x80)\n      callvalue\n      dup1\n      iszero\n      tag_1\n      jumpi\n      revert(0x00, 0x00)\n    tag_1:\n      pop\n      jumpi(tag_2, lt(calldatasize, 0x04))\n      shr(0xe0, calldataload(0x00))\n      dup1\n      0x1563700f\n      eq\n      tag_3\n      jumpi\n      dup1\n      0x25e4350e\n      eq\n      tag_4\n      jumpi\n      dup1\n      0xab5318e6\n      eq\n      tag_5\n      jumpi\n      dup1\n      0xc5f19c20\n      eq\n      tag_6\n      jumpi\n    tag_2:\n      revert(0x00, 0x00)\n        /* \"contracts/StorageFactory.sol\":662:857  function sfStore(uint256 _simpleStorageIndex, uint256 _value) public {... */\n    tag_3:\n      tag_7\n      tag_8\n      calldatasize\n      0x04\n      tag_9\n      jump\t// in\n    tag_8:\n      tag_10\n      jump\t// in\n    tag_7:\n      stop\n        /* \"contracts/StorageFactory.sol\":268:319  SimpleStorage[] public listofSimpleStorageContracts */\n    tag_4:\n      tag_11\n      tag_12\n      calldatasize\n      0x04\n      tag_13\n      jump\t// in\n    tag_12:\n      tag_14\n      jump\t// in\n    tag_11:\n      mload(0x40)\n      sub(shl(0xa0, 0x01), 0x01)\n        /* \"#utility.yul\":780:812   */\n      swap1\n      swap2\n      and\n        /* \"#utility.yul\":762:813   */\n      dup2\n      mstore\n        /* \"#utility.yul\":750:752   */\n      0x20\n        /* \"#utility.yul\":735:753   */\n      add\n        /* \"contracts/StorageFactory.sol\":268:319  SimpleStorage[] public listofSimpleStorageContracts */\n    tag_15:\n      mload(0x40)\n      dup1\n      swap2\n      sub\n      swap1\n      return\n        /* \"contracts/StorageFactory.sol\":356:658  function createSimpleSorage() public { //declaring and naming a fuction, calling it puvlic... */\n    tag_5:\n      tag_7\n      tag_18\n      jump\t// in\n        /* \"contracts/StorageFactory.sol\":861:1067  function sfGet(uint256 _simpleStorageIndex) public view returns (uint256) {... */\n    tag_6:\n      tag_19\n      tag_20\n      calldatasize\n      0x04\n      tag_13\n      jump\t// in\n    tag_20:\n      tag_21\n      jump\t// in\n    tag_19:\n      mload(0x40)\n        /* \"#utility.yul\":970:995   */\n      swap1\n      dup2\n      mstore\n        /* \"#utility.yul\":958:960   */\n      0x20\n        /* \"#utility.yul\":943:961   */\n      add\n        /* \"contracts/StorageFactory.sol\":861:1067  function sfGet(uint256 _simpleStorageIndex) public view returns (uint256) {... */\n      tag_15\n        /* \"#utility.yul\":824:1001   */\n      jump\n        /* \"contracts/StorageFactory.sol\":662:857  function sfStore(uint256 _simpleStorageIndex, uint256 _value) public {... */\n    tag_10:\n        /* \"contracts/StorageFactory.sol\":738:767  SimpleStorage mySimpleStorage */\n      0x00\n        /* \"contracts/StorageFactory.sol\":770:798  listofSimpleStorageContracts */\n      0x00\n        /* \"contracts/StorageFactory.sol\":799:818  _simpleStorageIndex */\n      dup4\n        /* \"contracts/StorageFactory.sol\":770:819  listofSimpleStorageContracts[_simpleStorageIndex] */\n      dup2\n      sload\n      dup2\n      lt\n      tag_26\n      jumpi\n      tag_26\n      tag_27\n      jump\t// in\n    tag_26:\n      0x00\n      swap2\n      dup3\n      mstore\n      0x20\n      swap1\n      swap2\n      keccak256\n      add\n      sload\n        /* \"contracts/StorageFactory.sol\":826:855  mySimpleStorage.store(_value) */\n      mload(0x40)\n      shl(0xe0, 0x6057361d)\n      dup2\n      mstore\n      0x04\n      dup2\n      add\n        /* \"#utility.yul\":970:995   */\n      dup5\n      swap1\n      mstore\n      sub(shl(0xa0, 0x01), 0x01)\n        /* \"contracts/StorageFactory.sol\":770:819  listofSimpleStorageContracts[_simpleStorageIndex] */\n      swap1\n      swap2\n      and\n      swap2\n      pop\n      dup2\n      swap1\n        /* \"contracts/StorageFactory.sol\":826:847  mySimpleStorage.store */\n      0x6057361d\n      swap1\n        /* \"#utility.yul\":943:961   */\n      0x24\n      add\n        /* \"contracts/StorageFactory.sol\":826:855  mySimpleStorage.store(_value) */\n      0x00\n      mload(0x40)\n      dup1\n      dup4\n      sub\n      dup2\n      0x00\n      dup8\n      dup1\n      extcodesize\n      iszero\n      dup1\n      iszero\n      tag_30\n      jumpi\n      revert(0x00, 0x00)\n    tag_30:\n      pop\n      gas\n      call\n      iszero\n      dup1\n      iszero\n      tag_32\n      jumpi\n      returndatacopy(0x00, 0x00, returndatasize)\n      revert(0x00, returndatasize)\n    tag_32:\n      pop\n      pop\n      pop\n      pop\n        /* \"contracts/StorageFactory.sol\":731:857  {... */\n      pop\n        /* \"contracts/StorageFactory.sol\":662:857  function sfStore(uint256 _simpleStorageIndex, uint256 _value) public {... */\n      pop\n      pop\n      jump\t// out\n        /* \"contracts/StorageFactory.sol\":268:319  SimpleStorage[] public listofSimpleStorageContracts */\n    tag_14:\n      0x00\n      dup2\n      dup2\n      sload\n      dup2\n      lt\n      tag_33\n      jumpi\n      0x00\n      dup1\n      revert\n    tag_33:\n      0x00\n      swap2\n      dup3\n      mstore\n      0x20\n      swap1\n      swap2\n      keccak256\n      add\n      sload\n      sub(shl(0xa0, 0x01), 0x01)\n      and\n      swap1\n      pop\n      dup2\n      jump\t// out\n        /* \"contracts/StorageFactory.sol\":356:658  function createSimpleSorage() public { //declaring and naming a fuction, calling it puvlic... */\n    tag_18:\n        /* \"contracts/StorageFactory.sol\":484:522  SimpleStorage newSimpleStorageContract */\n      0x00\n        /* \"contracts/StorageFactory.sol\":525:544  new SimpleStorage() */\n      mload(0x40)\n      tag_36\n      swap1\n      tag_37\n      jump\t// in\n    tag_36:\n      mload(0x40)\n      dup1\n      swap2\n      sub\n      swap1\n      0x00\n      create\n      dup1\n      iszero\n      dup1\n      iszero\n      tag_38\n      jumpi\n      returndatacopy(0x00, 0x00, returndatasize)\n      revert(0x00, returndatasize)\n    tag_38:\n      pop\n        /* \"contracts/StorageFactory.sol\":591:619  listofSimpleStorageContracts */\n      0x00\n        /* \"contracts/StorageFactory.sol\":591:650  listofSimpleStorageContracts.push(newSimpleStorageContract) */\n      dup1\n      sload\n      0x01\n      dup2\n      add\n      dup3\n      sstore\n      swap1\n      dup1\n      mstore\n      0x290decd9548b62a8d60345a988386fc84ba6bc95484008f6362f93160ef3e563\n      add\n      dup1\n      sload\n      not(sub(shl(0xa0, 0x01), 0x01))\n      and\n      sub(shl(0xa0, 0x01), 0x01)\n      swap3\n      swap1\n      swap3\n      and\n      swap2\n      swap1\n      swap2\n      or\n      swap1\n      sstore\n      pop\n        /* \"contracts/StorageFactory.sol\":356:658  function createSimpleSorage() public { //declaring and naming a fuction, calling it puvlic... */\n      jump\t// out\n        /* \"contracts/StorageFactory.sol\":861:1067  function sfGet(uint256 _simpleStorageIndex) public view returns (uint256) {... */\n    tag_21:\n        /* \"contracts/StorageFactory.sol\":926:933  uint256 */\n      0x00\n        /* \"contracts/StorageFactory.sol\":942:971  SimpleStorage mySimpleStorage */\n      0x00\n        /* \"contracts/StorageFactory.sol\":974:1002  listofSimpleStorageContracts */\n      0x00\n        /* \"contracts/StorageFactory.sol\":1003:1022  _simpleStorageIndex */\n      dup4\n        /* \"contracts/StorageFactory.sol\":974:1023  listofSimpleStorageContracts[_simpleStorageIndex] */\n      dup2\n      sload\n      dup2\n      lt\n      tag_42\n      jumpi\n      tag_42\n      tag_27\n      jump\t// in\n    tag_42:\n      0x00\n      swap2\n      dup3\n      mstore\n      0x20\n      swap2\n      dup3\n      swap1\n      keccak256\n      add\n      sload\n        /* \"contracts/StorageFactory.sol\":1037:1063  mySimpleStorage.retrieve() */\n      0x40\n      dup1\n      mload\n      shl(0xe0, 0x2e64cec1)\n      dup2\n      mstore\n      swap1\n      mload\n      sub(shl(0xa0, 0x01), 0x01)\n        /* \"contracts/StorageFactory.sol\":974:1023  listofSimpleStorageContracts[_simpleStorageIndex] */\n      swap1\n      swap3\n      and\n      swap4\n      pop\n      dup4\n      swap3\n        /* \"contracts/StorageFactory.sol\":1037:1061  mySimpleStorage.retrieve */\n      0x2e64cec1\n      swap3\n        /* \"contracts/StorageFactory.sol\":1037:1063  mySimpleStorage.retrieve() */\n      0x04\n      dup1\n      dup5\n      add\n      swap4\n      dup3\n      swap1\n      sub\n      add\n      dup2\n        /* \"contracts/StorageFactory.sol\":974:1023  listofSimpleStorageContracts[_simpleStorageIndex] */\n      dup7\n        /* \"contracts/StorageFactory.sol\":1037:1063  mySimpleStorage.retrieve() */\n      gas\n      staticcall\n      iszero\n      dup1\n      iszero\n      tag_45\n      jumpi\n      returndatacopy(0x00, 0x00, returndatasize)\n      revert(0x00, returndatasize)\n    tag_45:\n      pop\n      pop\n      pop\n      pop\n      mload(0x40)\n      returndatasize\n      not(0x1f)\n      0x1f\n      dup3\n      add\n      and\n      dup3\n      add\n      dup1\n      0x40\n      mstore\n      pop\n      dup2\n      add\n      swap1\n      tag_46\n      swap2\n      swap1\n      tag_47\n      jump\t// in\n    tag_46:\n        /* \"contracts/StorageFactory.sol\":1030:1063  return mySimpleStorage.retrieve() */\n      swap4\n        /* \"contracts/StorageFactory.sol\":861:1067  function sfGet(uint256 _simpleStorageIndex) public view returns (uint256) {... */\n      swap3\n      pop\n      pop\n      pop\n      jump\t// out\n    tag_37:\n      dataSize(sub_0)\n      dup1\n      dataOffset(sub_0)\n      dup4\n      codecopy\n      add\n      swap1\n      jump\t// out\n        /* \"#utility.yul\":14:360   */\n    tag_9:\n        /* \"#utility.yul\":82:88   */\n      0x00\n        /* \"#utility.yul\":90:96   */\n      0x00\n        /* \"#utility.yul\":143:145   */\n      0x40\n        /* \"#utility.yul\":131:140   */\n      dup4\n        /* \"#utility.yul\":122:129   */\n      dup6\n        /* \"#utility.yul\":118:141   */\n      sub\n        /* \"#utility.yul\":114:146   */\n      slt\n        /* \"#utility.yul\":111:163   */\n      iszero\n      tag_50\n      jumpi\n        /* \"#utility.yul\":159:160   */\n      0x00\n        /* \"#utility.yul\":156:157   */\n      0x00\n        /* \"#utility.yul\":149:161   */\n      revert\n        /* \"#utility.yul\":111:163   */\n    tag_50:\n      pop\n      pop\n        /* \"#utility.yul\":204:227   */\n      dup1\n      calldataload\n      swap3\n        /* \"#utility.yul\":324:326   */\n      0x20\n        /* \"#utility.yul\":309:327   */\n      swap1\n      swap2\n      add\n        /* \"#utility.yul\":296:328   */\n      calldataload\n      swap2\n      pop\n        /* \"#utility.yul\":14:360   */\n      jump\t// out\n        /* \"#utility.yul\":365:591   */\n    tag_13:\n        /* \"#utility.yul\":424:430   */\n      0x00\n        /* \"#utility.yul\":477:479   */\n      0x20\n        /* \"#utility.yul\":465:474   */\n      dup3\n        /* \"#utility.yul\":456:463   */\n      dup5\n        /* \"#utility.yul\":452:475   */\n      sub\n        /* \"#utility.yul\":448:480   */\n      slt\n        /* \"#utility.yul\":445:497   */\n      iszero\n      tag_52\n      jumpi\n        /* \"#utility.yul\":493:494   */\n      0x00\n        /* \"#utility.yul\":490:491   */\n      0x00\n        /* \"#utility.yul\":483:495   */\n      revert\n        /* \"#utility.yul\":445:497   */\n    tag_52:\n      pop\n        /* \"#utility.yul\":538:561   */\n      calldataload\n      swap2\n        /* \"#utility.yul\":365:591   */\n      swap1\n      pop\n      jump\t// out\n        /* \"#utility.yul\":1006:1133   */\n    tag_27:\n        /* \"#utility.yul\":1067:1077   */\n      0x4e487b71\n        /* \"#utility.yul\":1062:1065   */\n      0xe0\n        /* \"#utility.yul\":1058:1078   */\n      shl\n        /* \"#utility.yul\":1055:1056   */\n      0x00\n        /* \"#utility.yul\":1048:1079   */\n      mstore\n        /* \"#utility.yul\":1098:1102   */\n      0x32\n        /* \"#utility.yul\":1095:1096   */\n      0x04\n        /* \"#utility.yul\":1088:1103   */\n      mstore\n        /* \"#utility.yul\":1122:1126   */\n      0x24\n        /* \"#utility.yul\":1119:1120   */\n      0x00\n        /* \"#utility.yul\":1112:1127   */\n      revert\n        /* \"#utility.yul\":1138:1322   */\n    tag_47:\n        /* \"#utility.yul\":1208:1214   */\n      0x00\n        /* \"#utility.yul\":1261:1263   */\n      0x20\n        /* \"#utility.yul\":1249:1258   */\n      dup3\n        /* \"#utility.yul\":1240:1247   */\n      dup5\n        /* \"#utility.yul\":1236:1259   */\n      sub\n        /* \"#utility.yul\":1232:1264   */\n      slt\n        /* \"#utility.yul\":1229:1281   */\n      iszero\n      tag_57\n      jumpi\n        /* \"#utility.yul\":1277:1278   */\n      0x00\n        /* \"#utility.yul\":1274:1275   */\n      0x00\n        /* \"#utility.yul\":1267:1279   */\n      revert\n        /* \"#utility.yul\":1229:1281   */\n    tag_57:\n      pop\n        /* \"#utility.yul\":1300:1316   */\n      mload\n      swap2\n        /* \"#utility.yul\":1138:1322   */\n      swap1\n      pop\n      jump\t// out\n    stop\n\n    sub_0: assembly {\n            /* \"contracts/SimpleStorage.sol\":61:317  contract SimpleStorage {... */\n          mstore(0x40, 0x80)\n          callvalue\n          dup1\n          iszero\n          tag_1\n          jumpi\n          revert(0x00, 0x00)\n        tag_1:\n          pop\n          dataSize(sub_0)\n          dup1\n          dataOffset(sub_0)\n          0x00\n          codecopy\n          0x00\n          return\n        stop\n\n        sub_0: assembly {\n                /* \"contracts/SimpleStorage.sol\":61:317  contract SimpleStorage {... */\n              mstore(0x40, 0x80)\n              callvalue\n              dup1\n              iszero\n              tag_1\n              jumpi\n              revert(0x00, 0x00)\n            tag_1:\n              pop\n              jumpi(tag_2, lt(calldatasize, 0x04))\n              shr(0xe0, calldataload(0x00))\n              dup1\n              0x2e64cec1\n              eq\n              tag_3\n              jumpi\n              dup1\n              0x6057361d\n              eq\n              tag_4\n              jumpi\n              dup1\n              0x6d83bc57\n              eq\n              tag_5\n              jumpi\n            tag_2:\n              revert(0x00, 0x00)\n                /* \"contracts/SimpleStorage.sol\":222:314  function retrieve() public view returns (uint256) {... */\n            tag_3:\n                /* \"contracts/SimpleStorage.sol\":263:270  uint256 */\n              0x00\n                /* \"contracts/SimpleStorage.sol\":290:306  myFavoriteNumber */\n              sload\n                /* \"contracts/SimpleStorage.sol\":222:314  function retrieve() public view returns (uint256) {... */\n            tag_6:\n              mload(0x40)\n                /* \"#utility.yul\":160:185   */\n              swap1\n              dup2\n              mstore\n                /* \"#utility.yul\":148:150   */\n              0x20\n                /* \"#utility.yul\":133:151   */\n              add\n                /* \"contracts/SimpleStorage.sol\":222:314  function retrieve() public view returns (uint256) {... */\n              mload(0x40)\n              dup1\n              swap2\n              sub\n              swap1\n              return\n                /* \"contracts/SimpleStorage.sol\":132:214  function store(uint256 _value) public {... */\n            tag_4:\n              tag_10\n              tag_11\n              calldatasize\n              0x04\n              tag_12\n              jump\t// in\n            tag_11:\n                /* \"contracts/SimpleStorage.sol\":181:197  myFavoriteNumber */\n              0x00\n                /* \"contracts/SimpleStorage.sol\":181:206  myFavoriteNumber = _value */\n              sstore\n                /* \"contracts/SimpleStorage.sol\":132:214  function store(uint256 _value) public {... */\n              jump\n            tag_10:\n              stop\n                /* \"contracts/SimpleStorage.sol\":91:123  uint256 public  myFavoriteNumber */\n            tag_5:\n              tag_6\n              sload(0x00)\n              dup2\n              jump\n                /* \"#utility.yul\":196:376   */\n            tag_12:\n                /* \"#utility.yul\":255:261   */\n              0x00\n                /* \"#utility.yul\":308:310   */\n              0x20\n                /* \"#utility.yul\":296:305   */\n              dup3\n                /* \"#utility.yul\":287:294   */\n              dup5\n                /* \"#utility.yul\":283:306   */\n              sub\n                /* \"#utility.yul\":279:311   */\n              slt\n                /* \"#utility.yul\":276:328   */\n              iszero\n              tag_22\n              jumpi\n                /* \"#utility.yul\":324:325   */\n              0x00\n                /* \"#utility.yul\":321:322   */\n              0x00\n                /* \"#utility.yul\":314:326   */\n              revert\n                /* \"#utility.yul\":276:328   */\n            tag_22:\n              pop\n                /* \"#utility.yul\":347:370   */\n              calldataload\n              swap2\n                /* \"#utility.yul\":196:376   */\n              swap1\n              pop\n              jump\t// out\n\n            auxdata: 0xa2646970667358221220f99a350f5ef6ec2fd4287836c5b54bef1d09ab3745b95de73e56acdc6a43341464736f6c634300081e0033\n        }\n    }\n\n    auxdata: 0xa2646970667358221220ea53e0dc9bbadad8d9324e327a4a34196e91aff849afe7e9007fb767da94616964736f6c634300081e0033\n}\n",
				"bytecode": {
					"linkReferences": {},
					"object": "6080604052348015600e575f5ffd5b506103d78061001c5f395ff3fe608060405234801561000f575f5ffd5b506004361061004a575f3560e01c80631563700f1461004e57806325e4350e14610063578063ab5318e614610093578063c5f19c201461009b575b5f5ffd5b61006161005c36600461026e565b6100bc565b005b61007661007136600461028e565b610138565b6040516001600160a01b0390911681526020015b60405180910390f35b61006161015f565b6100ae6100a936600461028e565b6101d5565b60405190815260200161008a565b5f5f83815481106100cf576100cf6102a5565b5f91825260209091200154604051636057361d60e01b8152600481018490526001600160a01b0390911691508190636057361d906024015f604051808303815f87803b15801561011d575f5ffd5b505af115801561012f573d5f5f3e3d5ffd5b50505050505050565b5f8181548110610146575f80fd5b5f918252602090912001546001600160a01b0316905081565b5f60405161016c90610262565b604051809103905ff080158015610185573d5f5f3e3d5ffd5b505f80546001810182559080527f290decd9548b62a8d60345a988386fc84ba6bc95484008f6362f93160ef3e5630180546001600160a01b0319166001600160a01b039290921691909117905550565b5f5f5f83815481106101e9576101e96102a5565b5f918252602091829020015460408051632e64cec160e01b815290516001600160a01b0390921693508392632e64cec1926004808401938290030181865afa158015610237573d5f5f3e3d5ffd5b505050506040513d601f19601f8201168201806040525081019061025b91906102b9565b9392505050565b60d1806102d183390190565b5f5f6040838503121561027f575f5ffd5b50508035926020909101359150565b5f6020828403121561029e575f5ffd5b5035919050565b634e487b7160e01b5f52603260045260245ffd5b5f602082840312156102c9575f5ffd5b505191905056fe6080604052348015600e575f5ffd5b5060b780601a5f395ff3fe6080604052348015600e575f5ffd5b5060043610603a575f3560e01c80632e64cec114603e5780636057361d1460535780636d83bc57146064575b5f5ffd5b5f545b60405190815260200160405180910390f35b6062605e366004606b565b5f55565b005b60415f5481565b5f60208284031215607a575f5ffd5b503591905056fea2646970667358221220f99a350f5ef6ec2fd4287836c5b54bef1d09ab3745b95de73e56acdc6a43341464736f6c634300081e0033a2646970667358221220ea53e0dc9bbadad8d9324e327a4a34196e91aff849afe7e9007fb767da94616964736f6c634300081e0033",
					"opcodes": "PUSH1 0x80 PUSH1 0x40 MSTORE CALLVALUE DUP1 ISZERO PUSH1 0xE JUMPI PUSH0 PUSH0 REVERT JUMPDEST POP PUSH2 0x3D7 DUP1 PUSH2 0x1C PUSH0 CODECOPY PUSH0 RETURN INVALID PUSH1 0x80 PUSH1 0x40 MSTORE CALLVALUE DUP1 ISZERO PUSH2 0xF JUMPI PUSH0 PUSH0 REVERT JUMPDEST POP PUSH1 0x4 CALLDATASIZE LT PUSH2 0x4A JUMPI PUSH0 CALLDATALOAD PUSH1 0xE0 SHR DUP1 PUSH4 0x1563700F EQ PUSH2 0x4E JUMPI DUP1 PUSH4 0x25E4350E EQ PUSH2 0x63 JUMPI DUP1 PUSH4 0xAB5318E6 EQ PUSH2 0x93 JUMPI DUP1 PUSH4 0xC5F19C20 EQ PUSH2 0x9B JUMPI JUMPDEST PUSH0 PUSH0 REVERT JUMPDEST PUSH2 0x61 PUSH2 0x5C CALLDATASIZE PUSH1 0x4 PUSH2 0x26E JUMP JUMPDEST PUSH2 0xBC JUMP JUMPDEST STOP JUMPDEST PUSH2 0x76 PUSH2 0x71 CALLDATASIZE PUSH1 0x4 PUSH2 0x28E JUMP JUMPDEST PUSH2 0x138 JUMP JUMPDEST PUSH1 0x40 MLOAD PUSH1 0x1 PUSH1 0x1 PUSH1 0xA0 SHL SUB SWAP1 SWAP2 AND DUP2 MSTORE PUSH1 0x20 ADD JUMPDEST PUSH1 0x40 MLOAD DUP1 SWAP2 SUB SWAP1 RETURN JUMPDEST PUSH2 0x61 PUSH2 0x15F JUMP JUMPDEST PUSH2 0xAE PUSH2 0xA9 CALLDATASIZE PUSH1 0x4 PUSH2 0x28E JUMP JUMPDEST PUSH2 0x1D5 JUMP JUMPDEST PUSH1 0x40 MLOAD SWAP1 DUP2 MSTORE PUSH1 0x20 ADD PUSH2 0x8A JUMP JUMPDEST PUSH0 PUSH0 DUP4 DUP2 SLOAD DUP2 LT PUSH2 0xCF JUMPI PUSH2 0xCF PUSH2 0x2A5 JUMP JUMPDEST PUSH0 SWAP2 DUP3 MSTORE PUSH1 0x20 SWAP1 SWAP2 KECCAK256 ADD SLOAD PUSH1 0x40 MLOAD PUSH4 0x6057361D PUSH1 0xE0 SHL DUP2 MSTORE PUSH1 0x4 DUP2 ADD DUP5 SWAP1 MSTORE PUSH1 0x1 PUSH1 0x1 PUSH1 0xA0 SHL SUB SWAP1 SWAP2 AND SWAP2 POP DUP2 SWAP1 PUSH4 0x6057361D SWAP1 PUSH1 0x24 ADD PUSH0 PUSH1 0x40 MLOAD DUP1 DUP4 SUB DUP2 PUSH0 DUP8 DUP1 EXTCODESIZE ISZERO DUP1 ISZERO PUSH2 0x11D JUMPI PUSH0 PUSH0 REVERT JUMPDEST POP GAS CALL ISZERO DUP1 ISZERO PUSH2 0x12F JUMPI RETURNDATASIZE PUSH0 PUSH0 RETURNDATACOPY RETURNDATASIZE PUSH0 REVERT JUMPDEST POP POP POP POP POP POP POP JUMP JUMPDEST PUSH0 DUP2 DUP2 SLOAD DUP2 LT PUSH2 0x146 JUMPI PUSH0 DUP1 REVERT JUMPDEST PUSH0 SWAP2 DUP3 MSTORE PUSH1 0x20 SWAP1 SWAP2 KECCAK256 ADD SLOAD PUSH1 0x1 PUSH1 0x1 PUSH1 0xA0 SHL SUB AND SWAP1 POP DUP2 JUMP JUMPDEST PUSH0 PUSH1 0x40 MLOAD PUSH2 0x16C SWAP1 PUSH2 0x262 JUMP JUMPDEST PUSH1 0x40 MLOAD DUP1 SWAP2 SUB SWAP1 PUSH0 CREATE DUP1 ISZERO DUP1 ISZERO PUSH2 0x185 JUMPI RETURNDATASIZE PUSH0 PUSH0 RETURNDATACOPY RETURNDATASIZE PUSH0 REVERT JUMPDEST POP PUSH0 DUP1 SLOAD PUSH1 0x1 DUP2 ADD DUP3 SSTORE SWAP1 DUP1 MSTORE PUSH32 0x290DECD9548B62A8D60345A988386FC84BA6BC95484008F6362F93160EF3E563 ADD DUP1 SLOAD PUSH1 0x1 PUSH1 0x1 PUSH1 0xA0 SHL SUB NOT AND PUSH1 0x1 PUSH1 0x1 PUSH1 0xA0 SHL SUB SWAP3 SWAP1 SWAP3 AND SWAP2 SWAP1 SWAP2 OR SWAP1 SSTORE POP JUMP JUMPDEST PUSH0 PUSH0 PUSH0 DUP4 DUP2 SLOAD DUP2 LT PUSH2 0x1E9 JUMPI PUSH2 0x1E9 PUSH2 0x2A5 JUMP JUMPDEST PUSH0 SWAP2 DUP3 MSTORE PUSH1 0x20 SWAP2 DUP3 SWAP1 KECCAK256 ADD SLOAD PUSH1 0x40 DUP1 MLOAD PUSH4 0x2E64CEC1 PUSH1 0xE0 SHL DUP2 MSTORE SWAP1 MLOAD PUSH1 0x1 PUSH1 0x1 PUSH1 0xA0 SHL SUB SWAP1 SWAP3 AND SWAP4 POP DUP4 SWAP3 PUSH4 0x2E64CEC1 SWAP3 PUSH1 0x4 DUP1 DUP5 ADD SWAP4 DUP3 SWAP1 SUB ADD DUP2 DUP7 GAS STATICCALL ISZERO DUP1 ISZERO PUSH2 0x237 JUMPI RETURNDATASIZE PUSH0 PUSH0 RETURNDATACOPY RETURNDATASIZE PUSH0 REVERT JUMPDEST POP POP POP POP PUSH1 0x40 MLOAD RETURNDATASIZE PUSH1 0x1F NOT PUSH1 0x1F DUP3 ADD AND DUP3 ADD DUP1 PUSH1 0x40 MSTORE POP DUP2 ADD SWAP1 PUSH2 0x25B SWAP2 SWAP1 PUSH2 0x2B9 JUMP JUMPDEST SWAP4 SWAP3 POP POP POP JUMP JUMPDEST PUSH1 0xD1 DUP1 PUSH2 0x2D1 DUP4 CODECOPY ADD SWAP1 JUMP JUMPDEST PUSH0 PUSH0 PUSH1 0x40 DUP4 DUP6 SUB SLT ISZERO PUSH2 0x27F JUMPI PUSH0 PUSH0 REVERT JUMPDEST POP POP DUP1 CALLDATALOAD SWAP3 PUSH1 0x20 SWAP1 SWAP2 ADD CALLDATALOAD SWAP2 POP JUMP JUMPDEST PUSH0 PUSH1 0x20 DUP3 DUP5 SUB SLT ISZERO PUSH2 0x29E JUMPI PUSH0 PUSH0 REVERT JUMPDEST POP CALLDATALOAD SWAP2 SWAP1 POP JUMP JUMPDEST PUSH4 0x4E487B71 PUSH1 0xE0 SHL PUSH0 MSTORE PUSH1 0x32 PUSH1 0x4 MSTORE PUSH1 0x24 PUSH0 REVERT JUMPDEST PUSH0 PUSH1 0x20 DUP3 DUP5 SUB SLT ISZERO PUSH2 0x2C9 JUMPI PUSH0 PUSH0 REVERT JUMPDEST POP MLOAD SWAP2 SWAP1 POP JUMP INVALID PUSH1 0x80 PUSH1 0x40 MSTORE CALLVALUE DUP1 ISZERO PUSH1 0xE JUMPI PUSH0 PUSH0 REVERT JUMPDEST POP PUSH1 0xB7 DUP1 PUSH1 0x1A PUSH0 CODECOPY PUSH0 RETURN INVALID PUSH1 0x80 PUSH1 0x40 MSTORE CALLVALUE DUP1 ISZERO PUSH1 0xE JUMPI PUSH0 PUSH0 REVERT JUMPDEST POP PUSH1 0x4 CALLDATASIZE LT PUSH1 0x3A JUMPI PUSH0 CALLDATALOAD PUSH1 0xE0 SHR DUP1 PUSH4 0x2E64CEC1 EQ PUSH1 0x3E JUMPI DUP1 PUSH4 0x6057361D EQ PUSH1 0x53 JUMPI DUP1 PUSH4 0x6D83BC57 EQ PUSH1 0x64 JUMPI JUMPDEST PUSH0 PUSH0 REVERT JUMPDEST PUSH0 SLOAD JUMPDEST PUSH1 0x40 MLOAD SWAP1 DUP2 MSTORE PUSH1 0x20 ADD PUSH1 0x40 MLOAD DUP1 SWAP2 SUB SWAP1 RETURN JUMPDEST PUSH1 0x62 PUSH1 0x5E CALLDATASIZE PUSH1 0x4 PUSH1 0x6B JUMP JUMPDEST PUSH0 SSTORE JUMP JUMPDEST STOP JUMPDEST PUSH1 0x41 PUSH0 SLOAD DUP2 JUMP JUMPDEST PUSH0 PUSH1 0x20 DUP3 DUP5 SUB SLT ISZERO PUSH1 0x7A JUMPI PUSH0 PUSH0 REVERT JUMPDEST POP CALLDATALOAD SWAP2 SWAP1 POP JUMP INVALID LOG2 PUSH5 0x6970667358 0x22 SLT KECCAK256 EXTDELEGATECALL SWAP11 CALLDATALOAD 0xF MCOPY 0xF6 EOFCREATE 0x2F 0xD4 0x28 PUSH25 0x36C5B54BEF1D09AB3745B95DE73E56ACDC6A43341464736F6C PUSH4 0x4300081E STOP CALLER LOG2 PUSH5 0x6970667358 0x22 SLT KECCAK256 0xEA MSTORE8 RJUMP 0xDC9B 0xBA 0xDA 0xD8 0xD9 ORIGIN 0x4E ORIGIN PUSH27 0x4A34196E91AFF849AFE7E9007FB767DA94616964736F6C63430008 0x1E STOP CALLER "
				},
				"gasEstimates": {
					"creation": {
						"codeDepositCost": "196600",
						"executionCost": "236",
						"totalCost": "196836"
					},
					"external": {
						"createSimpleSorage()": "infinite",
						"listofSimpleStorageContracts(uint256)": "4599",
						"sfGet(uint256)": "infinite",
						"sfStore(uint256,uint256)": "infinite"
					}
				},
				"methodIdentifiers": {
					"createSimpleSorage()": "ab5318e6",
					"listofSimpleStorageContracts(uint256)": "25e4350e",
					"sfGet(uint256)": "c5f19c20",
					"sfStore(uint256,uint256)": "1563700f"
				}
			},
			"storageLayout": {
				"storage": [
					{
						"astId": 30,
						"contract": "contracts/StorageFactory.sol:SimpleFactory",
						"label": "listofSimpleStorageContracts",
						"offset": 0,
						"slot": "0",
						"type": "t_array(t_contract(SimpleStorage)22)dyn_storage"
					}
				],
				"types": {
					"t_array(t_contract(SimpleStorage)22)dyn_storage": {
						"base": "t_contract(SimpleStorage)22",
						"encoding": "dynamic_array",
						"label": "contract SimpleStorage[]",
						"numberOfBytes": "32"
					},
					"t_contract(SimpleStorage)22": {
						"encoding": "inplace",
						"label": "contract SimpleStorage",
						"numberOfBytes": "20"
					}
				}
			},
			"userdoc": {
				"kind": "user",
				"methods": {},
				"version": 1
			}
		}
	}
}