{
	"contracts/practice.sol": {
		"practice": {
			"abi": [
				{
					"inputs": [],
					"name": "accountUpdate",
					"outputs": [],
					"stateMutability": "nonpayable",
					"type": "function"
				}
			],
			"devdoc": {
				"kind": "dev",
				"methods": {},
				"version": 1
			},
			"evm": {
				"assembly": "    /* \"contracts/practice.sol\":94:218  contract practice {... */\n  mstore(0x40, 0x80)\n    /* \"contracts/practice.sol\":139:140  5 */\n  0x05\n    /* \"contracts/practice.sol\":119:140  uint256 accountno = 5 */\n  0x00\n  sstore\n    /* \"contracts/practice.sol\":94:218  contract practice {... */\n  callvalue\n  dup1\n  iszero\n  tag_1\n  jumpi\n  revert(0x00, 0x00)\ntag_1:\n  pop\n  dataSize(sub_0)\n  dup1\n  dataOffset(sub_0)\n  0x00\n  codecopy\n  0x00\n  return\nstop\n\nsub_0: assembly {\n        /* \"contracts/practice.sol\":94:218  contract practice {... */\n      mstore(0x40, 0x80)\n      callvalue\n      dup1\n      iszero\n      tag_1\n      jumpi\n      revert(0x00, 0x00)\n    tag_1:\n      pop\n      jumpi(tag_2, lt(calldatasize, 0x04))\n      shr(0xe0, calldataload(0x00))\n      dup1\n      0xdf4b4097\n      eq\n      tag_3\n      jumpi\n    tag_2:\n      revert(0x00, 0x00)\n        /* \"contracts/practice.sol\":149:214  function accountUpdate() public {... */\n    tag_3:\n      tag_4\n      tag_5\n      jump\t// in\n    tag_4:\n      stop\n    tag_5:\n        /* \"contracts/practice.sol\":205:206  1 */\n      0x01\n        /* \"contracts/practice.sol\":192:201  accountno */\n      0x00\n      0x00\n        /* \"contracts/practice.sol\":192:206  accountno -= 1 */\n      dup3\n      dup3\n      sload\n      tag_7\n      swap2\n      swap1\n      tag_8\n      jump\t// in\n    tag_7:\n      swap1\n      swap2\n      sstore\n      pop\n      pop\n        /* \"contracts/practice.sol\":149:214  function accountUpdate() public {... */\n      jump\t// out\n        /* \"#utility.yul\":14:239   */\n    tag_8:\n        /* \"#utility.yul\":81:90   */\n      dup2\n      dup2\n      sub\n        /* \"#utility.yul\":102:113   */\n      dup2\n      dup2\n      gt\n        /* \"#utility.yul\":99:233   */\n      iszero\n      tag_11\n      jumpi\n        /* \"#utility.yul\":155:165   */\n      0x4e487b71\n        /* \"#utility.yul\":150:153   */\n      0xe0\n        /* \"#utility.yul\":146:166   */\n      shl\n        /* \"#utility.yul\":143:144   */\n      0x00\n        /* \"#utility.yul\":136:167   */\n      mstore\n        /* \"#utility.yul\":190:194   */\n      0x11\n        /* \"#utility.yul\":187:188   */\n      0x04\n        /* \"#utility.yul\":180:195   */\n      mstore\n        /* \"#utility.yul\":218:222   */\n      0x24\n        /* \"#utility.yul\":215:216   */\n      0x00\n        /* \"#utility.yul\":208:223   */\n      revert\n        /* \"#utility.yul\":99:233   */\n    tag_11:\n        /* \"#utility.yul\":14:239   */\n      swap3\n      swap2\n      pop\n      pop\n      jump\t// out\n\n    auxdata: 0xa2646970667358221220a6786fe4c21b31008dbfeda5054b1d7809599a13a515665fb7b78baa076eb25164736f6c634300081e0033\n}\n",
				"bytecode": {
					"linkReferences": {},
					"object": "608060405260055f553480156012575f5ffd5b5060a280601e5f395ff3fe6080604052348015600e575f5ffd5b50600436106026575f3560e01c8063df4b409714602a575b5f5ffd5b60306032565b005b60015f5f828254604191906048565b9091555050565b81810381811115606657634e487b7160e01b5f52601160045260245ffd5b9291505056fea2646970667358221220a6786fe4c21b31008dbfeda5054b1d7809599a13a515665fb7b78baa076eb25164736f6c634300081e0033",
					"opcodes": "PUSH1 0x80 PUSH1 0x40 MSTORE PUSH1 0x5 PUSH0 SSTORE CALLVALUE DUP1 ISZERO PUSH1 0x12 JUMPI PUSH0 PUSH0 REVERT JUMPDEST POP PUSH1 0xA2 DUP1 PUSH1 0x1E PUSH0 CODECOPY PUSH0 RETURN INVALID PUSH1 0x80 PUSH1 0x40 MSTORE CALLVALUE DUP1 ISZERO PUSH1 0xE JUMPI PUSH0 PUSH0 REVERT JUMPDEST POP PUSH1 0x4 CALLDATASIZE LT PUSH1 0x26 JUMPI PUSH0 CALLDATALOAD PUSH1 0xE0 SHR DUP1 PUSH4 0xDF4B4097 EQ PUSH1 0x2A JUMPI JUMPDEST PUSH0 PUSH0 REVERT JUMPDEST PUSH1 0x30 PUSH1 0x32 JUMP JUMPDEST STOP JUMPDEST PUSH1 0x1 PUSH0 PUSH0 DUP3 DUP3 SLOAD PUSH1 0x41 SWAP2 SWAP1 PUSH1 0x48 JUMP JUMPDEST SWAP1 SWAP2 SSTORE POP POP JUMP JUMPDEST DUP2 DUP2 SUB DUP2 DUP2 GT ISZERO PUSH1 0x66 JUMPI PUSH4 0x4E487B71 PUSH1 0xE0 SHL PUSH0 MSTORE PUSH1 0x11 PUSH1 0x4 MSTORE PUSH1 0x24 PUSH0 REVERT JUMPDEST SWAP3 SWAP2 POP POP JUMP INVALID LOG2 PUSH5 0x6970667358 0x22 SLT KECCAK256 0xA6 PUSH25 0x6FE4C21B31008DBFEDA5054B1D7809599A13A515665FB7B78B 0xAA SMOD PUSH15 0xB25164736F6C634300081E00330000 "
				},
				"gasEstimates": {
					"creation": {
						"codeDepositCost": "32400",
						"executionCost": "22190",
						"totalCost": "54590"
					},
					"external": {
						"accountUpdate()": "24419"
					}
				},
				"methodIdentifiers": {
					"accountUpdate()": "df4b4097"
				}
			},
			"storageLayout": {
				"storage": [
					{
						"astId": 4,
						"contract": "contracts/practice.sol:practice",
						"label": "accountno",
						"offset": 0,
						"slot": "0",
						"type": "t_uint256"
					}
				],
				"types": {
					"t_uint256": {
						"encoding": "inplace",
						"label": "uint256",
						"numberOfBytes": "32"
					}
				}
			},
			"userdoc": {
				"kind": "user",
				"methods": {},
				"version": 1
			}
		}
	}
}