{
	"data": {
		"bytecode": {
			"linkReferences": {},
			"object": "6080604052348015600e575f5ffd5b50607980601a5f395ff3fe6080604052348015600e575f5ffd5b50600436106026575f3560e01c80636289e82114602a575b5f5ffd5b6031600581565b60405190815260200160405180910390f3fea26469706673582212205b0aaed68fbd0230238575cdbdd819e80042e4794b53ee898cb2da685efc820764736f6c634300081e0033",
			"opcodes": "PUSH1 0x80 PUSH1 0x40 MSTORE CALLVALUE DUP1 ISZERO PUSH1 0xE JUMPI PUSH0 PUSH0 REVERT JUMPDEST POP PUSH1 0x79 DUP1 PUSH1 0x1A PUSH0 CODECOPY PUSH0 RETURN INVALID PUSH1 0x80 PUSH1 0x40 MSTORE CALLVALUE DUP1 ISZERO PUSH1 0xE JUMPI PUSH0 PUSH0 REVERT JUMPDEST POP PUSH1 0x4 CALLDATASIZE LT PUSH1 0x26 JUMPI PUSH0 CALLDATALOAD PUSH1 0xE0 SHR DUP1 PUSH4 0x6289E821 EQ PUSH1 0x2A JUMPI JUMPDEST PUSH0 PUSH0 REVERT JUMPDEST PUSH1 0x31 PUSH1 0x5 DUP2 JUMP JUMPDEST PUSH1 0x40 MLOAD SWAP1 DUP2 MSTORE PUSH1 0x20 ADD PUSH1 0x40 MLOAD DUP1 SWAP2 SUB SWAP1 RETURN INVALID LOG2 PUSH5 0x6970667358 0x22 SLT KECCAK256 JUMPDEST EXP 0xAE 0xD6 DUP16 0xBD MUL ADDRESS 0x23 DUP6 PUSH22 0xCDBDD819E80042E4794B53EE898CB2DA685EFC820764 PUSH20 0x6F6C634300081E00330000000000000000000000 "
		},
		"gasEstimates": {
			"creation": {
				"codeDepositCost": "24200",
				"executionCost": "73",
				"totalCost": "24273"
			},
			"external": {
				"DEFAULT_PRACTICE_VALUE()": "160"
			}
		},
		"methodIdentifiers": {
			"DEFAULT_PRACTICE_VALUE()": "6289e821"
		}
	},
	"abi": [
		{
			"inputs": [],
			"name": "DEFAULT_PRACTICE_VALUE",
			"outputs": [
				{
					"internalType": "uint256",
					"name": "",
					"type": "uint256"
				}
			],
			"stateMutability": "view",
			"type": "function"
		}
	]
}