{
	"data": {
		"bytecode": {
			"linkReferences": {},
			"object": "6080604052348015600e575f80fd5b50607980601a5f395ff3fe6080604052348015600e575f80fd5b50600436106026575f3560e01c80636289e82114602a575b5f80fd5b6031600581565b60405190815260200160405180910390f3fea2646970667358221220be3b2516970ff7d3ddd97a2eb6493f389a92d65155d147f33f921b889bfcfdeb64736f6c63430008140033",
			"opcodes": "PUSH1 0x80 PUSH1 0x40 MSTORE CALLVALUE DUP1 ISZERO PUSH1 0xE JUMPI PUSH0 DUP1 REVERT JUMPDEST POP PUSH1 0x79 DUP1 PUSH1 0x1A PUSH0 CODECOPY PUSH0 RETURN INVALID PUSH1 0x80 PUSH1 0x40 MSTORE CALLVALUE DUP1 ISZERO PUSH1 0xE JUMPI PUSH0 DUP1 REVERT JUMPDEST POP PUSH1 0x4 CALLDATASIZE LT PUSH1 0x26 JUMPI PUSH0 CALLDATALOAD PUSH1 0xE0 SHR DUP1 PUSH4 0x6289E821 EQ PUSH1 0x2A JUMPI JUMPDEST PUSH0 DUP1 REVERT JUMPDEST PUSH1 0x31 PUSH1 0x5 DUP2 JUMP JUMPDEST PUSH1 0x40 MLOAD SWAP1 DUP2 MSTORE PUSH1 0x20 ADD PUSH1 0x40 MLOAD DUP1 SWAP2 SUB SWAP1 RETURN INVALID LOG2 PUSH5 0x6970667358 0x22 SLT KECCAK256 0xBE EXTCODESIZE 0x25 AND SWAP8 0xF 0xF7 0xD3 0xDD 0xD9 PUSH27 0x2EB6493F389A92D65155D147F33F921B889BFCFDEB64736F6C6343 STOP ADDMOD EQ STOP CALLER "
		},
		"gasEstimates": {
			"creation": {
				"codeDepositCost": "24200",
				"executionCost": "73",
				"totalCost": "24273"
			},
			"external": {
				"DEFAULT_PRACTICE_VALUE()": "160"
			}
		},
		"methodIdentifiers": {
			"DEFAULT_PRACTICE_VALUE()": "6289e821"
		}
	},
	"abi": [
		{
			"inputs": [],
			"name": "DEFAULT_PRACTICE_VALUE",
			"outputs": [
				{
					"internalType": "uint256",
					"name": "",
					"type": "uint256"
				}
			],
			"stateMutability": "view",
			"type": "function"
		}
	]
}